:100000000C94B2000C94DA000C94DA000C94700496
:100010000C9494040C94B8040C94DA000C94DA0058
:100020000C94DA000C94DA000C94DA000C94DA00E8
:100030000C94DA000C94DA000C94DA000C94DA00D8
:100040000C948E010C94DA000C94DA000C94DA0013
:100050000C94DA000C94DA000C94DA000C94DA00B8
:100060000C94DA000C94DA00000000070002010092
:100070000003040600000000000000000102040864
:100080001020408001020408102001020408102002
:10009000040404040404040402020202020203032E
:1000A00003030303000000002300260029000000D2
:1000B0000000250028002B0000000000240027007D
:1000C0002A0000C201000100110011000C0000E133
:1000D00000000A00250025002100009600001900FC
:1000E000390039003600127A00001F004600460031
:1000F00044008070000022004D004D004A00004B7B
:1001000000003600750075007200403800004A009B
:100110009C009C009900802500007200EC00EC001F
:10012000E900C0120000E900DA01DA01D701600934
:100130000000D701B603B603B303B0040000B30355
:100140006E076E076B07580200006E07DC0EDC0EB0
:10015000D80E2C010000DC0EC11DC11DBE1DDC002F
:100160008A01E30011241FBECFEFD8E0DEBFCDBF70
:1001700011E0A0E0B1E0E2E1FDE002C005900D92E7
:10018000A231B107D9F711E0A2E1B1E001C01D929F
:10019000AC37B107E1F711E0C2E6D1E004C0229725
:1001A000FE010E947806CE35D107C9F70E94F402FD
:1001B0000C944B060C94000020E043E062E082E1E6
:1001C00091E00C942A0582E191E00C941C061F93A7
:1001D000CF93DF9300D0CDB7DEB7162F61E08091CB
:1001E00000012A8349830E94BE02612F82E191E0CF
:1001F0000E94FE034981642F82E191E00E94FE0388
:10020000107F812F90E02A81813B91052CF4622F91
:1002100082E191E00E94FE0360E0809100010F9076
:100220000F90DF91CF911F910C94BE02CF93DF937B
:10023000EC0142E15AE760E070E082E191E00E9467
:100240005A0561E0809101010E94850260E0809181
:1002500001010E94BE0264E670E080E090E00E942E
:10026000FB0161E0809101010E94BE0264E670E042
:1002700080E090E00E94FB0128E747E060EBCE01C0
:10028000DF91CF910C94E7006115710529F0613081
:10029000710521F428E703C020E001C029E740E010
:1002A00060EB0C94E700462F20E060EC0C94E70034
:1002B000242F462F60E90C94E700242F462F60E896
:1002C0000C94E70061E070E08EE291E00C94440150
:1002D00069E170E08EE291E00E9453014FE750E047
:1002E0006CE370E08EE291E00E94580168EE73E0EA
:1002F00080E090E00E94FB014FE750E06CE370E08B
:100300008EE291E00E945D0168EE73E080E090E093
:100310000C94FB018EE291E00C9416011F920F9257
:100320000FB60F9211242F933F938F939F93AF9308
:10033000BF938091300190913101A0913201B09131
:10034000330130912F0123E0230F2D3720F4019644
:10035000A11DB11D05C026E8230F0296A11DB11DE8
:1003600020932F018093300190933101A0933201AB
:10037000B09333018091340190913501A091360101
:10038000B09137010196A11DB11D80933401909366
:100390003501A0933601B0933701BF91AF919F9182
:1003A0008F913F912F910F900FBE0F901F90189536
:1003B0003FB7F8948091340190913501A0913601B6
:1003C000B091370126B5A89B05C02F3F19F00196C3
:1003D000A11DB11D3FBF6627782F892F9A2F620F6D
:1003E000711D811D911D42E0660F771F881F991FA7
:1003F0004A95D1F70895CF92DF92EF92FF92CF9373
:10040000DF936B017C010E94D801EB01C114D10480
:10041000E104F10479F00E94D8016C1B7D0B683E69
:100420007340A0F381E0C81AD108E108F108C8516F
:10043000DC4FECCFDF91CF91FF90EF90DF90CF902A
:100440000895789484B5826084BD84B5816084BD4C
:1004500085B5826085BD85B5816085BDEEE6F0E03D
:10046000808181608083E1E8F0E010828081826099
:100470008083808181608083E0E8F0E0808181601A
:100480008083E1EBF0E0808184608083E0EBF0E04A
:10049000808181608083EAE7F0E0808184608083EE
:1004A0008081826080838081816080838081806898
:1004B00080831092C1000895833081F028F4813048
:1004C00099F08230A1F008958630A9F08730B9F014
:1004D0008430D1F4809180008F7D03C080918000B2
:1004E0008F7780938000089584B58F7702C084B59C
:1004F0008F7D84BD08958091B0008F7703C0809177
:10050000B0008F7D8093B0000895CF93DF9390E08B
:10051000FC01E458FF4F2491FC01E057FF4F849108
:10052000882349F190E0880F991FFC01E854FF4FA0
:10053000A591B49182559F4FFC01C591D4919FB76D
:10054000611108C0F8948C91209582238C93888146
:1005500082230AC0623051F4F8948C91322F309586
:1005600083238C938881822B888304C0F8948C9198
:10057000822B8C939FBFDF91CF9108950F931F9390
:10058000CF93DF931F92CDB7DEB7282F30E0F9016C
:10059000E859FF4F8491F901E458FF4F1491F90194
:1005A000E057FF4F04910023C9F0882321F06983AD
:1005B0000E945C026981E02FF0E0EE0FFF1FE25520
:1005C000FF4FA591B4919FB7F8948C91611103C02E
:1005D0001095812301C0812B8C939FBF0F90DF91D9
:1005E000CF911F910F9108950E9421020E946201F4
:1005F000C0E0D0E00E9468012097E1F30E94000073
:10060000F9CF20917A0130917B0128173907B9F48D
:100610009091380180913901981789F0E091380163
:10062000F0E0E65CFE4F80812091380130E02F5FE2
:100630003F4F2F7333272093380190E008958FEFB9
:100640009FEF089520917A0130917B012817390797
:1006500081F49091380180913901981751F0E0911F
:100660003801F0E0E65CFE4F8081992787FD909588
:1006700008958FEF9FEF089520917A0130917B01CB
:100680002817390771F4809139012091380190E0E1
:10069000805C9F4F821B910960E470E00E946206BB
:1006A000089580E090E0089520917A0130917B01D7
:1006B0002817390739F48FB7F8941092390110923E
:1006C00038018FBF0895DC015196ED91FC9152974E
:1006D000208150968C91809582238083089520E01C
:1006E00001972FEF8F3F9207D9F7089520917A0154
:1006F00030917B012817390789F0FC01238D2E7F6B
:10070000238F2FB7F89410923901109238019093EB
:100710007B0180937A012FBF81E0089580E00895E6
:10072000EF92FF920F931F93CF93DF93EC018B8D8A
:10073000EE85FF859D8581FF04C08081892329F492
:1007400047C08081892309F043C08B899C890E941E
:100750006F0308E010E0EE24E394F12C8D899E896C
:100760000E946F03EE85FF8580819D85892311F0AE
:10077000FE2803C08E2D8095F822EE0C0150110941
:100780000115110559F78F89988D0E946F038B8D84
:1007900081FDF094809139012091380190E001961B
:1007A0008F73992730E08217930779F0E091390130
:1007B000F0E0E65CFE4FF0828091390190E0019616
:1007C0008F7399278093390103C08B8D81608B8F44
:1007D000DF91CF911F910F91FF90EF9008956111DC
:1007E00002C00C946303DC015196ED91FC91529789
:1007F000208150968C91282B20830895DF92EF92D0
:10080000FF920F931F93CF93DF93EC01E62E898D18
:100810009A8D892B39F481E090E09B838A8380E074
:1008200090E04DC0DFB6F8946B8D66956170CE0197
:100830000E94EF03898D9A8D05960E946F038B8D20
:1008400008E010E0FF24F39481FF19C08F2D8E2162
:1008500021F0CE010E94630304C061E0CE010E943A
:10086000EF03898D9A8D0E946F03FF0C01501109CF
:100870000115110559F7CE010E94630319C08F2D90
:100880008E2129F061E0CE010E94EF0303C0CE016A
:100890000E946303898D9A8D0E946F03FF0C0150A3
:1008A00011090115110559F761E0CE010E94EF030E
:1008B000DFBE898D9A8D0E946F0381E090E0DF9109
:1008C000CF911F910F91FF90EF90DF90089580914D
:1008D0007A0190917B01009711F00C949003089598
:1008E0001F920F920FB60F9211242F933F934F93A5
:1008F0005F936F937F938F939F93AF93BF93EF9388
:10090000FF930E946704FF91EF91BF91AF919F9178
:100910008F917F916F915F914F913F912F910F90A8
:100920000FBE0F901F9018951F920F920FB60F9247
:1009300011242F933F934F935F936F937F938F93E4
:100940009F93AF93BF93EF93FF930E946704FF9130
:10095000EF91BF91AF919F918F917F916F915F9137
:100960004F913F912F910F900FBE0F901F901895B0
:100970001F920F920FB60F9211242F933F934F9314
:100980005F936F937F938F939F93AF93BF93EF93F7
:10099000FF930E946704FF91EF91BF91AF919F91E8
:1009A0008F917F916F915F914F913F912F910F9018
:1009B0000FBE0F901F9018951F93CF93DF93EC01FC
:1009C000162F61E0812F0E94850261E0812F0E9435
:1009D000BE02812F90E0FC01E458FF4FE491E88BC8
:1009E000FC01E057FF4FE491F0E0EE0FFF1FE255EE
:1009F000FF4F859194919A8B898BDF91CF911F91B5
:100A000008951F93CF93DF93EC01162F60E0812FA1
:100A10000E9485028B8D81FD04C061E0812F0E94C0
:100A2000BE021C87812F90E0FC01E458FF4FE49147
:100A3000ED87FC01E057FF4FE491F0E0EE0FFF1F60
:100A4000EC55FF4F859194919F878E87DF91CF91D1
:100A50001F910895FF920F931F93CF93DF93EC01A3
:100A6000F62E522F1B821A8208EE13E020E030E0AF
:100A70000C831D832E833F8386E091E099838883D6
:100A80001C8A1B8A1E8A1D8A188E1F8A1A8E198E2E
:100A90008B8D8E7F50FB81F98B8F642FCE010E944E
:100AA000DC046F2DCE01DF91CF911F910F91FF904C
:100AB0000C9401050F931F93CF93DF93EC011A8ED3
:100AC000198E188E1F8A1E8A1D8AA2ECB0E080E063
:100AD00090E0FD01059115912591349104171507BA
:100AE0002607370719F54CE0489F9001499F300DC4
:100AF0001124F901EA53FF4F859194919C8B8B8BC4
:100B0000F901E853FF4F859194919E8B8D8BF901EC
:100B1000E653FF4F85919491988F8F8B24533F4FCD
:100B2000F901859194919A8F898F08C001961C963E
:100B30008D30910509F0CDCF1C8A1B8A8F89988D45
:100B4000892B09F443C08C858631E0F5209168003B
:100B5000883050F091E08E3008F490E081E001C0E0
:100B6000880F9A95EAF701C084E0822B8093680091
:100B70002C85283038F02E3040F0263148F0E0E067
:100B8000F0E008C0EDE6F0E005C0EBE6F0E002C002
:100B9000ECE6F0E03081283030F481E001C0880FCD
:100BA0002A95EAF70DC0822F90E02E3010F40897B6
:100BB00001C00E9791E001C0990F8A95EAF7892F3D
:100BC000832B8083898D9A8D0E946F03CE01DF91E4
:100BD000CF911F910F910C947603FC01448546310F
:100BE00050F5483028F04E3030F4EBE6F0E005C028
:100BF000EDE6F0E002C0ECE6F0E05081483040F471
:100C000081E090E0042E01C0880F0A94EAF710C03A
:100C1000242F30E04E3018F42850310902C02E50F5
:100C2000310981E090E0022E01C0880F0A94EAF7B2
:100C3000809585238083089526E031E0FC0131838F
:100C400020830C94ED05CF92DF92EF92FF920F93E9
:100C50001F93CF93DF936C017A01EB01E60EF71E31
:100C600000E010E0CE15DF0561F06991D601ED914D
:100C7000FC910190F081E02DC6010995080F191F24
:100C8000F1CFC801DF91CF911F910F91FF90EF90AD
:100C9000DF90CF900895F8940C947C06AA1BBB1BA0
:100CA00051E107C0AA1FBB1FA617B70710F0A61B6C
:100CB000B70B881F991F5A95A9F780959095BC018D
:100CC000CD01089597FB072E16F4009407D077FD09
:100CD00009D00E944E0607FC05D03EF49095819500
:100CE0009F4F0895709561957F4F0895EE0FFF1FF8
:100CF0000590F491E02D099411E0C2E6D1E004C022
:100D0000FE010E9478062296C436D107C9F7F894EE
:020D1000FFCF13
:100D12000D0400000000FE0323063C03010322032E
:020D2200540378
:00000001FF
