:100000000C94B2000C94DA000C94DA000C949B0669
:100010000C94BF060C94E3060C94DA000C94DA00FE
:100020000C94DA000C94DA000C94DA000C94DA00E8
:100030000C94DA000C94DA000C94DA000C94DA00D8
:100040000C9461010C94DA000C945F030C94A203ED
:100050000C94DA000C94DA000C94DA000C94DA00B8
:100060000C94DA000C94DA00000000070002010092
:100070000003040600000000000000000102040864
:100080001020408001020408102001020408102002
:10009000040404040404040402020202020203032E
:1000A00003030303000000002300260029000000D2
:1000B0000000250028002B0000000000240027007D
:1000C0002A0000C201000100110011000C0000E133
:1000D00000000A00250025002100009600001900FC
:1000E000390039003600127A00001F004600460031
:1000F00044008070000022004D004D004A00004B7B
:1001000000003600750075007200403800004A009B
:100110009C009C009900802500007200EC00EC001F
:10012000E900C0120000E900DA01DA01D701600934
:100130000000D701B603B603B303B0040000B30355
:100140006E076E076B07580200006E07DC0EDC0EB0
:10015000D80E2C010000DC0EC11DC11DBE1DDC002F
:100160005E04E30011241FBECFEFD8E0DEBFCDBF99
:1001700011E0A0E0B1E0ECE5F1E102C005900D92E4
:10018000A433B107D9F712E0A4E3B1E001C01D9296
:10019000A734B107E1F711E0C2E6D1E004C022972D
:1001A000FE010E949D08CE35D107C9F70E94B40414
:1001B0000C944E080C94000020E043E062E084E3DD
:1001C00091E00C94550784E391E00C9447080F9359
:1001D0001F93CF93DF931F92CDB7DEB7182F062F53
:1001E00061E08091000149830E949102612F84E3C4
:1001F00091E00E942906602F84E391E00E94290685
:10020000107F812F90E04981813B91052CF4642F70
:1002100084E391E00E94290660E0809100010F9044
:10022000DF91CF911F910F910C94910240E051EE1C
:1002300060E070E089E591E00E94DD0342E15AE769
:1002400060E070E084E391E00E94850761E08091C6
:1002500001010E94580260E0809101010E94910218
:1002600064E670E080E090E00E94CE0161E0809161
:1002700001010E94910264E670E080E090E00E943B
:10028000CE0148E767E080EB0C94E70062E071E0A4
:1002900089E591E00E941A0540E060E080EB0E9451
:1002A000E70040E064E180EC0E94E7004FE76CE388
:1002B00080E90E94E70068EE73E080E090E00C9433
:1002C000CE011F920F920FB60F9211242F933F93DE
:1002D0008F939F93AF93BF9380915101909152015F
:1002E000A0915301B09154013091500123E0230FAC
:1002F0002D3720F40196A11DB11D05C026E8230F5E
:100300000296A11DB11D209350018093510190933D
:100310005201A0935301B0935401809155019091E3
:100320005601A0915701B09158010196A11DB11D30
:100330008093550190935601A0935701B0935801B3
:10034000BF91AF919F918F913F912F910F900FBED1
:100350000F901F9018953FB7F89480915501909198
:100360005601A0915701B091580126B5A89B05C030
:100370002F3F19F00196A11DB11D3FBF6627782FB1
:10038000892F9A2F620F711D811D911D42E0660F0A
:10039000771F881F991F4A95D1F70895CF92DF9252
:1003A000EF92FF92CF93DF936B017C010E94AB0130
:1003B000EB01C114D104E104F10479F00E94AB0116
:1003C0006C1B7D0B683E7340A0F381E0C81AD10816
:1003D000E108F108C851DC4FECCFDF91CF91FF90DD
:1003E000EF90DF90CF900895789484B5826084BDBB
:1003F00084B5816084BD85B5826085BD85B5816029
:1004000085BDEEE6F0E0808181608083E1E8F0E088
:100410001082808182608083808181608083E0E8B7
:10042000F0E0808181608083E1EBF0E08081846096
:100430008083E0EBF0E0808181608083EAE7F0E098
:1004400080818460808380818260808380818160FC
:1004500080838081806880831092C10008958330FA
:1004600081F028F4813099F08230A1F0089586302F
:10047000A9F08730B9F08430D1F4809180008F7D6D
:1004800003C0809180008F7780938000089584B5A9
:100490008F7702C084B58F7D84BD08958091B000B0
:1004A0008F7703C08091B0008F7D8093B000089556
:1004B000CF93DF9390E0FC01E458FF4F2491FC01BF
:1004C000E057FF4F8491882349F190E0880F991FEE
:1004D000FC01E854FF4FA591B49182559F4FFC0158
:1004E000C591D4919FB7611108C0F8948C91209563
:1004F00082238C93888182230AC0623051F4F8945D
:100500008C91322F309583238C938881822B888322
:1005100004C0F8948C91822B8C939FBFDF91CF9174
:1005200008950F931F93CF93DF931F92CDB7DEB73C
:10053000282F30E0F901E859FF4F8491F901E45880
:10054000FF4F1491F901E057FF4F04910023C9F0C8
:10055000882321F069830E942F026981E02FF0E057
:10056000EE0FFF1FE255FF4FA591B4919FB7F8948E
:100570008C91611103C01095812301C0812B8C9354
:100580009FBF0F90DF91CF911F910F910895FC01B4
:1005900024853585F901E05CFF4F80819181F90167
:1005A000EE5BFF4F20813181821B930B8F73992764
:1005B0000895FC0184859585FC01E05CFF4F408136
:1005C0005181FC01EE5BFF4F2081318142175307BF
:1005D00041F00190F081E02DE80FF91F808190E05B
:1005E00008958FEF9FEF0895FC0184859585FC01A8
:1005F000E05CFF4F40815181FC01EE5BFF4F2081A9
:1006000031814217530779F0A081B181A80FB91F3A
:100610008C91208131812F5F3F4F2F73332731839E
:10062000208390E008958FEF9FEF0895FC0181A152
:10063000882329F0A489B5898C9186FFFBCF11A26C
:100640000895CF93DF93FC0126853785D901A05CFF
:10065000BF4F8D919C91119701968F739927E90156
:10066000CE5BDF4F4881598184179507D9F30D90F0
:10067000BC91A02DA20FB31F6C93A685B785A05C7B
:10068000BF4F11969C938E93A689B7892C9181E0D8
:1006900090E0078C02C0880F991F0A94E2F7282B7C
:1006A0002C9381E081A30488F589E02D808180640A
:1006B000808381E090E0DF91CF91089508951F92AB
:1006C0000F920FB60F9211242F933F934F938F9356
:1006D0009F93EF93FF938091C00082FD1CC04091D7
:1006E000C6008091FF019091000201968F739927B7
:1006F00020910102309102028217930771F0E0917C
:10070000FF01F0910002E154FE4F408390930002FC
:100710008093FF0102C08091C600FF91EF919F91ED
:100720008F914F913F912F910F900FBE0F901F907F
:10073000189589E591E00E94C702892B11F00C946D
:100740005E0308951F920F920FB60F9211242F93FC
:100750003F938F939F93EF93FF932091BB01309131
:10076000BC018091BD019091BE012817390731F479
:100770008091C1008F7D8093C10014C0E091BD01C4
:10078000F091BE01E558FE4F20818091BD0190910E
:10079000BE0101968F7399279093BE018093BD018E
:1007A0002093C600FF91EF919F918F913F912F91E0
:1007B0000F900FBE0F901F901895CF92DF92EF927F
:1007C000FF92CF93DF93EC016A017B01411581EE2B
:1007D000580761057105F9F0EC89FD8981E090E029
:1007E00008A002C0880F991F0A94E2F7808360E096
:1007F00079E08DE390E0A70196010E9479082150ED
:100800003109410951095695479537952795211585
:1008100080E1380798F0EC89FD89108260E874E87F
:100820008EE190E0A70196010E94790821503109DC
:10083000410951095695479537952795E889F989D2
:100840003083EA89FB89208319A2EE89FF894081E0
:1008500081E090E09C010C8C02C0220F331F0A94AF
:10086000E2F7422B4083EE89FF8940819C010D8C89
:1008700002C0220F331F0A94E2F7422B4083EE8915
:10088000FF8940819C010E8C02C0220F331F0A9405
:10089000E2F7422B4083EE89FF8920810F8C02C052
:1008A000880F991F0A94E2F7809582238083DF9155
:1008B000CF91FF90EF90DF90CF90089510925C0160
:1008C00010925B0188EE93E0A0E0B0E080935D01C0
:1008D00090935E01A0935F01B093600188E191E085
:1008E00090935A01809359018FEB91E090936601A8
:1008F000809365018BE791E0909368018093670195
:1009000085EC90E090936A018093690184EC90E01B
:1009100090936C0180936B0180EC90E090936E015A
:1009200080936D0181EC90E09093700180936F0152
:1009300082EC90E0909372018093710186EC90E0DC
:10094000909374018093730184E08093750183E038
:100950008093760187E08093770185E0809378012A
:1009600081E08093790108950E94F4010E941601AC
:10097000C9E9D3E00E9446012097E1F30E94990360
:10098000F9CFCF92DF92EF92FF920F931F93CF9305
:10099000DF936C017A01EB01E60EF71E00E010E038
:1009A000CE15DF0561F06991D601ED91FC910190C2
:1009B000F081E02DC6010995080F191FF1CFC8017C
:1009C000DF91CF911F910F91FF90EF90DF90CF902B
:1009D00008956115710581F0DB010D900020E9F7A4
:1009E000AD0141505109461B570BDC01ED91FC91C3
:1009F0000280F381E02D099480E090E00895DC010D
:100A0000ED91FC910190F081E02D09940F931F93DB
:100A1000CF93DF93EC016DE00E94FF048C016AE04C
:100A2000CE010E94FF04800F911FDF91CF911F9193
:100A30000F9108950F931F93CF93DF93EC010E94C2
:100A4000E9048C01CE010E940605800F911FDF9101
:100A5000CF911F910F910895209145023091460248
:100A600028173907B9F4909103028091040298176E
:100A700089F0E0910302F0E0EB5FFD4F808120916F
:100A8000030230E02F5F3F4F2F7333272093030281
:100A900090E008958FEF9FEF0895209145023091E7
:100AA00046022817390781F49091030280910402CD
:100AB000981751F0E0910302F0E0EB5FFD4F808169
:100AC000992787FD909508958FEF9FEF08952091C6
:100AD0004502309146022817390771F480910402CB
:100AE0002091030290E0805C9F4F821B910960E49B
:100AF00070E00E946508089580E090E008952091DC
:100B00004502309146022817390739F48FB7F89417
:100B100010920402109203028FBF0895DC015196D7
:100B2000ED91FC915297208150968C918095822373
:100B30008083089520E001972FEF8F3F9207D9F728
:100B4000089520914502309146022817390789F00F
:100B5000FC01238D2E7F238F2FB7F894109204026F
:100B60001092030290934602809345022FBF81E0CA
:100B7000089580E00895EF92FF920F931F93CF9313
:100B8000DF93EC018B8DEE85FF859D8581FF04C091
:100B90008081892329F447C08081892309F043C0DB
:100BA0008B899C890E949A0508E010E0EE24E3946A
:100BB000F12C8D899E890E949A05EE85FF858081A2
:100BC0009D85892311F0FE2803C08E2D8095F82283
:100BD000EE0C015011090115110559F78F89988DF7
:100BE0000E949A058B8D81FDF094809104022091E2
:100BF000030290E001968F73992730E082179307E4
:100C000079F0E0910402F0E0EB5FFD4FF08280911B
:100C1000040290E001968F7399278093040203C029
:100C20008B8D81608B8FDF91CF911F910F91FF9002
:100C3000EF900895611102C00C948E05DC0151966D
:100C4000ED91FC915297208150968C91282B208316
:100C50000895DF92EF92FF920F931F93CF93DF934C
:100C6000EC01E62E898D9A8D892B39F481E090E094
:100C70009B838A8380E090E04DC0DFB6F8946B8D53
:100C800066956170CE010E941A06898D9A8D05962F
:100C90000E949A058B8D08E010E0FF24F39481FFF9
:100CA00019C08F2D8E2121F0CE010E948E0504C027
:100CB00061E0CE010E941A06898D9A8D0E949A05E4
:100CC000FF0C015011090115110559F7CE010E94C1
:100CD0008E0519C08F2D8E2129F061E0CE010E9472
:100CE0001A0603C0CE010E948E05898D9A8D0E943E
:100CF0009A05FF0C015011090115110559F761E022
:100D0000CE010E941A06DFBE898D9A8D0E949A0537
:100D100081E090E0DF91CF911F910F91FF90EF90D4
:100D2000DF9008958091450290914602009711F05E
:100D30000C94BB0508951F920F920FB60F921124C9
:100D40002F933F934F935F936F937F938F939F93D3
:100D5000AF93BF93EF93FF930E949206FF91EF91A1
:100D6000BF91AF919F918F917F916F915F914F91C3
:100D70003F912F910F900FBE0F901F9018951F92CB
:100D80000F920FB60F9211242F933F934F935F93BF
:100D90006F937F938F939F93AF93BF93EF93FF9343
:100DA0000E949206FF91EF91BF91AF919F918F9119
:100DB0007F916F915F914F913F912F910F900FBE57
:100DC0000F901F9018951F920F920FB60F9211243B
:100DD0002F933F934F935F936F937F938F939F9343
:100DE000AF93BF93EF93FF930E949206FF91EF9111
:100DF000BF91AF919F918F917F916F915F914F9133
:100E00003F912F910F900FBE0F901F9018951F9339
:100E1000CF93DF93EC01162F61E0812F0E945802DF
:100E200061E0812F0E949102812F90E0FC01E45843
:100E3000FF4FE491E88BFC01E057FF4FE491F0E0B5
:100E4000EE0FFF1FE255FF4F859194919A8B898B8E
:100E5000DF91CF911F9108951F93CF93DF93EC0102
:100E6000162F60E0812F0E9458028B8D81FD04C0F7
:100E700061E0812F0E9491021C87812F90E0FC018C
:100E8000E458FF4FE491ED87FC01E057FF4FE491F8
:100E9000F0E0EE0FFF1FEC55FF4F859194919F8777
:100EA0008E87DF91CF911F910895FF920F931F932B
:100EB000CF93DF93EC01F62E522F1B821A8208EE9D
:100EC00013E020E030E00C831D832E833F8388E213
:100ED00091E0998388831C8A1B8A1E8A1D8A188E3A
:100EE0001F8A1A8E198E8B8D8E7F50FB81F98B8F06
:100EF000642FCE010E9407076F2DCE01DF91CF91A5
:100F00001F910F91FF900C942C070F931F93CF9379
:100F1000DF93EC011A8E198E188E1F8A1E8A1D8A85
:100F2000A2ECB0E080E090E0FD01059115912591E3
:100F30003491041715072607370719F54CE0489F29
:100F40009001499F300D1124F901EA53FF4F85911B
:100F500094919C8B8B8BF901E853FF4F8591949171
:100F60009E8B8D8BF901E653FF4F85919491988F5D
:100F70008F8B24533F4FF901859194919A8F898FDC
:100F800008C001961C968D30910509F0CDCF1C8AC2
:100F90001B8A8F89988D892B09F443C08C858631F3
:100FA000E0F520916800883050F091E08E3008F430
:100FB00090E081E001C0880F9A95EAF701C084E0D3
:100FC000822B809368002C85283038F02E3040F03A
:100FD000263148F0E0E0F0E008C0EDE6F0E005C0C2
:100FE000EBE6F0E002C0ECE6F0E03081283030F4CF
:100FF00081E001C0880F2A95EAF70DC0822F90E0AA
:101000002E3010F4089701C00E9791E001C0990F9F
:101010008A95EAF7892F832B8083898D9A8D0E9488
:101020009A05CE01DF91CF911F910F910C94A105EC
:10103000FC014485463150F5483028F04E3030F4FC
:10104000EBE6F0E005C0EDE6F0E002C0ECE6F0E033
:101050005081483040F481E090E0042E01C0880FB8
:101060000A94EAF710C0242F30E04E3018F42850CC
:10107000310902C02E50310981E090E0022E01C0FA
:10108000880F0A94EAF7809585238083089528E2E3
:1010900031E0FC01318320830C941808F8940C94FF
:1010A000A108AA1BBB1B51E107C0AA1FBB1FA617A3
:1010B000B70710F0A61BB70B881F991F5A95A9F701
:1010C00080959095BC01CD01089597FB072E16F4ED
:1010D000009407D077FD09D00E94510807FC05D085
:1010E0003EF4909581959F4F0895709561957F4F3F
:1010F0000895A1E21A2EAA1BBB1BFD010DC0AA1F59
:10110000BB1FEE1FFF1FA217B307E407F50720F070
:10111000A21BB30BE40BF50B661F771F881F991FEB
:101120001A9469F760957095809590959B01AC0134
:10113000BD01CF010895EE0FFF1F0590F491E02D42
:10114000099411E0C2E6D1E004C0FE010E949D08AE
:0C1150002296C436D107C9F7F894FFCFEF
:10115C000D04426173696320496E737472756D6519
:10116C006E747300000000002103C104C702F40276
:10117C00D9021603000000002906C10467052C05DE
:04118C004D057F0589
:00000001FF
