:100000000C94B3000C94DB000C94DB000C940C06F5
:100010000C9430060C9454060C94DB000C94DB001A
:100020000C94DB000C94DB000C94DB000C94DB00E4
:100030000C94DB000C94DB000C94DB000C94DB00D4
:100040000C9415010C94DB000C9413030C945603D0
:100050000C94DB000C94DB000C94DB000C94DB00B4
:100060000C94DB000C94DB00000000070002010090
:100070000003040600000000000000000102040864
:100080001020408001020408102001020408102002
:10009000040404040404040402020202020203032E
:1000A00003030303000000002300260029000000D2
:1000B0000000250028002B0000000000240027007D
:1000C0002A0000C201000100110011000C0000E133
:1000D00000000A00250025002100009600001900FC
:1000E000390039003600127A00001F004600460031
:1000F00044008070000022004D004D004A00004B7B
:1001000000003600750075007200403800004A009B
:100110009C009C009900802500007200EC00EC001F
:10012000E900C0120000E900DA01DA01D701600934
:100130000000D701B603B603B303B0040000B30355
:100140006E076E076B07580200006E07DC0EDC0EB0
:10015000D80E2C010000DC0EC11DC11DBE1DFD000E
:1001600011011204040111241FBECFEFD8E0DEBF3D
:10017000CDBF11E0A0E0B1E0EEE3F0E102C00590F8
:100180000D92A032B107D9F712E0A0E2B1E001C0B0
:100190001D92A433B107E1F711E0C4E6D1E004C039
:1001A0002297FE010E940E08CE35D107C9F70E94A2
:1001B00068040C94BF070C94000042E15AE760E029
:1001C00070E080E291E00E94F60661E084E00E9427
:1001D0000C0260E084E00E94450264E670E080E08A
:1001E00090E00E94820161E084E00E94450264E6A2
:1001F00070E080E090E00C94820120E043E062E057
:1002000080E291E00C94C60680E291E00C94B8077D
:1002100040E855E260E070E086E491E00C949103E0
:1002200008958CE391E00C94DD001F920F920FB6BD
:100230000F9211242F933F938F939F93AF93BF936C
:1002400080913E0190913F01A0914001B091410108
:1002500030913D0123E0230F2D3720F40196A11D9D
:10026000B11D05C026E8230F0296A11DB11D2093E4
:100270003D0180933E0190933F01A0934001B093D4
:1002800041018091420190914301A0914401B091BC
:1002900045010196A11DB11D809342019093430138
:1002A000A0934401B0934501BF91AF919F918F916D
:1002B0003F912F910F900FBE0F901F9018953FB751
:1002C000F8948091420190914301A0914401B09132
:1002D000450126B5A89B05C02F3F19F00196A11D29
:1002E000B11D3FBF6627782F892F9A2F620F711D8E
:1002F000811D911D42E0660F771F881F991F4A9547
:10030000D1F70895CF92DF92EF92FF92CF93DF93D0
:100310006B017C010E945F01EB01C114D104E10477
:10032000F10479F00E945F016C1B7D0B683E734005
:10033000A0F381E0C81AD108E108F108C851DC4FE8
:10034000ECCFDF91CF91FF90EF90DF90CF900895A9
:10035000789484B5826084BD84B5816084BD85B5A0
:10036000826085BD85B5816085BDEEE6F0E0808167
:1003700081608083E1E8F0E0108280818260808388
:10038000808181608083E0E8F0E08081816080830B
:10039000E1EBF0E0808184608083E0EBF0E080813D
:1003A00081608083EAE7F0E08081846080838081DF
:1003B0008260808380818160808380818068808387
:1003C0001092C1000895833081F028F4813099F0B3
:1003D0008230A1F008958630A9F08730B9F08430DA
:1003E000D1F4809180008F7D03C0809180008F7751
:1003F00080938000089584B58F7702C084B58F7D87
:1004000084BD08958091B0008F7703C08091B000C3
:100410008F7D8093B0000895CF93DF9390E0FC012F
:10042000E458FF4F2491FC01E057FF4F849188234B
:1004300049F190E0880F991FFC01E854FF4FA59106
:10044000B49182559F4FFC01C591D4919FB7611122
:1004500008C0F8948C91209582238C938881822304
:100460000AC0623051F4F8948C91322F3095832376
:100470008C938881822B888304C0F8948C91822B82
:100480008C939FBFDF91CF9108950F931F93CF93CC
:10049000DF931F92CDB7DEB7282F30E0F901E8597E
:1004A000FF4F8491F901E458FF4F1491F901E0578F
:1004B000FF4F04910023C9F0882321F069830E9433
:1004C000E3016981E02FF0E0EE0FFF1FE255FF4FDF
:1004D000A591B4919FB7F8948C91611103C01095C8
:1004E000812301C0812B8C939FBF0F90DF91CF910F
:1004F0001F910F910895FC0124853585F901E05C79
:10050000FF4F80819181F901EE5BFF4F20813181A6
:10051000821B930B8F7399270895FC018485958521
:10052000FC01E05CFF4F40815181FC01EE5BFF4F1D
:10053000208131814217530741F00190F081E02D75
:10054000E80FF91F808190E008958FEF9FEF0895E5
:10055000FC0184859585FC01E05CFF4F4081518161
:10056000FC01EE5BFF4F208131814217530779F088
:10057000A081B181A80FB91F8C91208131812F5F9B
:100580003F4F2F7333273183208390E008958FEFFF
:100590009FEF0895FC0181A1882329F0A489B589E2
:1005A0008C9186FFFBCF11A20895CF93DF93FC01BE
:1005B00026853785D901A05CBF4F8D919C911197FD
:1005C00001968F739927E901CE5BDF4F48815981EE
:1005D00084179507D9F30D90BC91A02DA20FB31FDE
:1005E0006C93A685B785A05CBF4F11969C938E93A4
:1005F000A689B7892C9181E090E0078C02C0880F12
:10060000991F0A94E2F7282B2C9381E081A3048898
:10061000F589E02D80818064808381E090E0DF9126
:10062000CF91089508951F920F920FB60F92112443
:100630002F933F934F938F939F93EF93FF938091CB
:10064000C00082FD1CC04091C6008091EC019091D9
:10065000ED0101968F7399272091EE013091EF0102
:100660008217930771F0E091EC01F091ED01E455F0
:10067000FE4F40839093ED018093EC0102C0809186
:10068000C600FF91EF919F918F914F913F912F91D4
:100690000F900FBE0F901F90189586E491E00E9476
:1006A0007B02892B11F00C94120308951F920F9274
:1006B0000FB60F9211242F933F938F939F93EF9335
:1006C000FF932091A8013091A9018091AA019091F6
:1006D000AB012817390731F48091C1008F7D8093D9
:1006E000C10014C0E091AA01F091AB01E859FE4F9E
:1006F00020818091AA019091AB0101968F73992777
:100700009093AB018093AA012093C600FF91EF91D3
:100710009F918F913F912F910F900FBE0F901F903F
:100720001895CF92DF92EF92FF92CF93DF93EC0177
:100730006A017B01411581EE580761057105F9F0E9
:10074000EC89FD8981E090E008A002C0880F991F24
:100750000A94E2F7808360E079E08DE390E0A701FE
:1007600096010E94EA072150310941095109569525
:10077000479537952795211580E1380798F0EC8942
:10078000FD89108260E874E88EE190E0A70196018F
:100790000E94EA07215031094109510956954795B0
:1007A00037952795E889F9893083EA89FB89208381
:1007B00019A2EE89FF89408181E090E09C010C8CB8
:1007C00002C0220F331F0A94E2F7422B4083EE89C6
:1007D000FF8940819C010D8C02C0220F331F0A94B7
:1007E000E2F7422B4083EE89FF8940819C010E8C09
:1007F00002C0220F331F0A94E2F7422B4083EE8996
:10080000FF8920810F8C02C0880F991F0A94E2F79C
:10081000809582238083DF91CF91FF90EF90DF90CE
:10082000CF900895109249011092480188EE93E00C
:10083000A0E0B0E080934A0190934B01A0934C015B
:10084000B0934D0184E091E090934701809346017D
:100850008CEA91E0909353018093520188E691E0F5
:10086000909355018093540185EC90E0909357014B
:100870008093560184EC90E0909359018093580145
:1008800080EC90E090935B0180935A0181EC90E0C2
:1008900090935D0180935C0182EC90E090935F0106
:1008A00080935E0186EC90E09093610180936001FB
:1008B00084E08093620183E08093630187E080930A
:1008C000640185E08093650181E08093660108956D
:1008D0000E94A8010E940801CDE4D3E00E9410010B
:1008E0002097E1F30E944D03F9CFCF92DF92EF9270
:1008F000FF920F931F93CF93DF936C017A01EB016B
:10090000E60EF71E00E010E0CE15DF0561F06991FC
:10091000D601ED91FC910190F081E02DC601099581
:10092000080F191FF1CFC801DF91CF911F910F91CF
:10093000FF90EF90DF90CF90089520913202309198
:10094000330228173907B9F49091F0018091F10131
:10095000981789F0E091F001F0E0EE50FE4F8081B1
:100960002091F00130E02F5F3F4F2F73332720930A
:10097000F00190E008958FEF9FEF089520913202EB
:10098000309133022817390781F49091F00180915A
:10099000F101981751F0E091F001F0E0EE50FE4FB8
:1009A0008081992787FD909508958FEF9FEF089597
:1009B00020913202309133022817390771F4809167
:1009C000F1012091F00190E0805C9F4F821B910922
:1009D00060E470E00E94D607089580E090E00895FA
:1009E00020913202309133022817390739F48FB73A
:1009F000F8941092F1011092F0018FBF0895DC017C
:100A00005196ED91FC915297208150968C91809552
:100A100082238083089520E001972FEF8F3F920774
:100A2000D9F70895209132023091330228173907FF
:100A300089F0FC01238D2E7F238F2FB7F89410921D
:100A4000F1011092F00190933302809332022FBF94
:100A500081E0089580E00895EF92FF920F931F9335
:100A6000CF93DF93EC018B8DEE85FF859D8581FF14
:100A700004C08081892329F447C08081892309F03B
:100A800043C08B899C890E940B0508E010E0EE248E
:100A9000E394F12C8D899E890E940B05EE85FF85DC
:100AA00080819D85892311F0FE2803C08E2D8095BD
:100AB000F822EE0C015011090115110559F78F8923
:100AC000988D0E940B058B8D81FDF0948091F10132
:100AD0002091F00190E001968F73992730E0821702
:100AE000930779F0E091F101F0E0EE50FE4FF082D3
:100AF0008091F10190E001968F7399278093F10125
:100B000003C08B8D81608B8FDF91CF911F910F91EF
:100B1000FF90EF900895611102C00C94FF04DC0176
:100B20005196ED91FC915297208150968C91282BF3
:100B300020830895DF92EF92FF920F931F93CF933C
:100B4000DF93EC01E62E898D9A8D892B39F481E0B3
:100B500090E09B838A8380E090E04DC0DFB6F894FC
:100B60006B8D66956170CE010E948B05898D9A8D83
:100B700005960E940B058B8D08E010E0FF24F3948E
:100B800081FF19C08F2D8E2121F0CE010E94FF041C
:100B900004C061E0CE010E948B05898D9A8D0E9470
:100BA0000B05FF0C015011090115110559F7CE0174
:100BB0000E94FF0419C08F2D8E2129F061E0CE0123
:100BC0000E948B0503C0CE010E94FF04898D9A8D7F
:100BD0000E940B05FF0C015011090115110559F771
:100BE00061E0CE010E948B05DFBE898D9A8D0E9447
:100BF0000B0581E090E0DF91CF911F910F91FF9065
:100C0000EF90DF9008958091320290913302009727
:100C100011F00C942C0508951F920F920FB60F92AD
:100C200011242F933F934F935F936F937F938F93F1
:100C30009F93AF93BF93EF93FF930E940306FF919F
:100C4000EF91BF91AF919F918F917F916F915F9144
:100C50004F913F912F910F900FBE0F901F901895BD
:100C60001F920F920FB60F9211242F933F934F9321
:100C70005F936F937F938F939F93AF93BF93EF9304
:100C8000FF930E940306FF91EF91BF91AF919F9157
:100C90008F917F916F915F914F913F912F910F9025
:100CA0000FBE0F901F9018951F920F920FB60F92C4
:100CB00011242F933F934F935F936F937F938F9361
:100CC0009F93AF93BF93EF93FF930E940306FF910F
:100CD000EF91BF91AF919F918F917F916F915F91B4
:100CE0004F913F912F910F900FBE0F901F9018952D
:100CF0001F93CF93DF93EC01162F61E0812F0E94A9
:100D00000C0261E0812F0E944502812F90E0FC01DE
:100D1000E458FF4FE491E88BFC01E057FF4FE4916A
:100D2000F0E0EE0FFF1FE255FF4F859194919A8BF3
:100D3000898BDF91CF911F9108951F93CF93DF93FC
:100D4000EC01162F60E0812F0E940C028B8D81FD3B
:100D500004C061E0812F0E9445021C87812F90E032
:100D6000FC01E458FF4FE491ED87FC01E057FF4F91
:100D7000E491F0E0EE0FFF1FEC55FF4F8591949149
:100D80009F878E87DF91CF911F910895FF920F93D8
:100D90001F93CF93DF93EC01F62E522F1B821A8202
:100DA00008EE13E020E030E00C831D832E833F83A8
:100DB00084E191E0998388831C8A1B8A1E8A1D8A9C
:100DC000188E1F8A1A8E198E8B8D8E7F50FB81F99B
:100DD0008B8F642FCE010E9478066F2DCE01DF919C
:100DE000CF911F910F91FF900C949D060F931F932D
:100DF000CF93DF93EC011A8E198E188E1F8A1E8AEC
:100E00001D8AA2ECB0E080E090E0FD010591159113
:100E100025913491041715072607370719F54CE07B
:100E2000489F9001499F300D1124F901EA53FF4F6B
:100E3000859194919C8B8B8BF901E853FF4F8591A1
:100E400094919E8B8D8BF901E653FF4F8591949180
:100E5000988F8F8B24533F4FF901859194919A8FEE
:100E6000898F08C001961C968D30910509F0CDCF71
:100E70001C8A1B8A8F89988D892B09F443C08C8525
:100E80008631E0F520916800883050F091E08E3096
:100E900008F490E081E001C0880F9A95EAF701C05C
:100EA00084E0822B809368002C85283038F02E3027
:100EB00040F0263148F0E0E0F0E008C0EDE6F0E078
:100EC00005C0EBE6F0E002C0ECE6F0E0308128304F
:100ED00030F481E001C0880F2A95EAF70DC0822F17
:100EE00090E02E3010F4089701C00E9791E001C0F9
:100EF000990F8A95EAF7892F832B8083898D9A8DA4
:100F00000E940B05CE01DF91CF911F910F910C94A0
:100F10001205FC014485463150F5483028F04E302A
:100F200030F4EBE6F0E005C0EDE6F0E002C0ECE600
:100F3000F0E05081483040F481E090E0042E01C0A0
:100F4000880F0A94EAF710C0242F30E04E3018F4CE
:100F50002850310902C02E50310981E090E0022E64
:100F600001C0880F0A94EAF780958523808308954D
:100F700024E131E0FC01318320830C948907F8944B
:100F80000C941208AA1BBB1B51E107C0AA1FBB1F70
:100F9000A617B70710F0A61BB70B881F991F5A9505
:100FA000A9F780959095BC01CD01089597FB072E78
:100FB00016F4009407D077FD09D00E94C20707FC01
:100FC00005D03EF4909581959F4F08957095619559
:100FD0007F4F0895A1E21A2EAA1BBB1BFD010DC075
:100FE000AA1FBB1FEE1FFF1FA217B307E407F507D9
:100FF00020F0A21BB30BE40BF50B661F771F881FB5
:10100000991F1A9469F760957095809590959B014A
:10101000AC01BD01CF010895EE0FFF1F0590F491C3
:10102000E02D099411E0C4E6D1E004C0FE010E9465
:0E1030000E082296C636D107C9F7F894FFCFF6
:10103E0000000000D50275047B02A8028D02CA02D0
:10104E00000000009A057504D8049D04BE04F00447
:00000001FF
