:100000000C9465000C948D000C948D000C944C05A0
:100010000C9470050C9494050C948D000C948D0038
:100020000C948D000C948D000C948D000C948D001C
:100030000C948D000C948D000C948D000C948D000C
:100040000C946C060C948D000C946D020C94B00210
:100050000C948D000C948D000C948D000C948D00EC
:100060000C948D000C948D0000000007000201002C
:100070000003040600000000000000000102040864
:100080001020408001020408102001020408102002
:10009000040404040404040402020202020203032E
:1000A00003030303000000002300260029000000D2
:1000B0000000250028002B0000000000240027007D
:1000C0002A00900039016C03970011241FBECFEF66
:1000D000D8E0DEBFCDBF11E0A0E0B1E0E2EAFEE093
:1000E00002C005900D92A632B107D9F712E0A6E240
:1000F000B1E001C01D92AA33B107E1F710E0C8ECEE
:10010000D0E004C02297FE010E944007C23CD10704
:10011000C9F70E94C2030C94F1060C9400000895E4
:1001200020E043E062E086E291E00C94060686E27D
:1001300091E00C9465061F93CF93DF9300D0CDB769
:10014000DEB7162F61E08DE02A8349830E949F016C
:10015000612F86E291E00E94DA044981642F86E2F1
:1001600091E00E94DA04107F812F90E02A81813B88
:1001700091052CF4622F86E291E00E94DA0460E09F
:100180008DE00F900F90DF91CF911F910C949F0104
:100190000F931F93CF93DF93EC018B01E091430109
:1001A000F09144010280F381E02D45E050E060E0F1
:1001B00071E083E491E009950115110529F0013002
:1001C000110521F428E703C020E001C029E740E041
:1001D00060EBCE01DF91CF911F910F910C949B00AA
:1001E000462F20E060EC0C949B00242F462F60E902
:1001F0000C949B006115710581F0DB010D900020CE
:10020000E9F7AD0141505109461B570BDC01ED9157
:10021000FC910280F381E02D099480E090E0089544
:1002200061E070E082E491E00E94C80040E855E29D
:1002300060E070E083E491E00C94EB0260E071E038
:1002400083E491E00E94FA006CE370E082E491E0C4
:100250000E94F0004FE750E06CE370E082E491E030
:100260000E94F50060E071E083E491E00E94FA00F2
:10027000F9CF82E491E00C948F00833081F028F470
:10028000813099F08230A1F008958630A9F087304E
:10029000B9F08430D1F4809180008F7D03C08091CB
:1002A00080008F7780938000089584B58F7702C097
:1002B00084B58F7D84BD08958091B0008F7703C091
:1002C0008091B0008F7D8093B0000895CF93DF932D
:1002D00090E0FC01E458FF4F2491FC01E057FF4FF0
:1002E0008491882349F190E0880F991FFC01E8541C
:1002F000FF4FA591B49182559F4FFC01C591D491B8
:100300009FB7611108C0F8948C91209582238C933B
:10031000888182230AC0623051F4F8948C91322F84
:10032000309583238C938881822B888304C0F89432
:100330008C91822B8C939FBFDF91CF9108950F9367
:100340001F93CF93DF931F92CDB7DEB7282F30E0F6
:10035000F901E859FF4F8491F901E458FF4F1491D6
:10036000F901E057FF4F04910023C9F0882321F0E1
:1003700069830E943D016981E02FF0E0EE0FFF1FCD
:10038000E255FF4FA591B4919FB7F8948C916111FC
:1003900003C01095812301C0812B8C939FBF0F90C8
:1003A000DF91CF911F910F910895FC012485358530
:1003B000F901E05CFF4F80819181F901EE5BFF4F15
:1003C00020813181821B930B8F7399270895FC0143
:1003D00084859585FC01E05CFF4F40815181FC01E3
:1003E000EE5BFF4F208131814217530741F00190AE
:1003F000F081E02DE80FF91F808190E008958FEFE4
:100400009FEF0895FC0184859585FC01E05CFF4F1A
:1004100040815181FC01EE5BFF4F20813181421709
:10042000530779F0A081B181A80FB91F8C91208169
:1004300031812F5F3F4F2F7333273183208390E02B
:1004400008958FEF9FEF0895FC0181A1882329F083
:10045000A489B5898C9186FFFBCF11A20895CF9313
:10046000DF93FC0126853785D901A05CBF4F8D91B4
:100470009C91119701968F739927E901CE5BDF4F0D
:100480004881598184179507D9F30D90BC91A02D0F
:10049000A20FB31F6C93A685B785A05CBF4F1196C2
:1004A0009C938E93A689B7892C9181E090E0078C6C
:1004B00002C0880F991F0A94E2F7282B2C9381E041
:1004C00081A30488F589E02D80818064808381E0A8
:1004D00090E0DF91CF91089508951F920F920FB68B
:1004E0000F9211242F933F934F938F939F93EF93EA
:1004F000FF938091C00082FD1CC04091C600809196
:10050000E9019091EA0101968F7399272091EB01FF
:100510003091EC018217930771F0E091E901F091BD
:10052000EA01E755FE4F40839093EA018093E90189
:1005300002C08091C600FF91EF919F918F914F91E2
:100540003F912F910F900FBE0F901F90189583E44D
:1005500091E00E94D501892B11F00C946C02089552
:100560001F920F920FB60F9211242F933F938F93E8
:100570009F93EF93FF932091A5013091A601809165
:10058000A7019091A8012817390731F48091C10083
:100590008F7D8093C10014C0E091A701F091A80164
:1005A000EB59FE4F20818091A7019091A8010196FF
:1005B0008F7399279093A8018093A7012093C60079
:1005C000FF91EF919F918F913F912F910F900FBECF
:1005D0000F901F901895CF92DF92EF92FF92CF93DA
:1005E000DF93EC016A017B01411581EE580761053B
:1005F0007105F9F0EC89FD8981E090E008A002C066
:10060000880F991F0A94E2F7808360E079E08DE318
:1006100090E0A70196010E941C0721503109410971
:1006200051095695479537952795211580E138074B
:1006300098F0EC89FD89108260E874E88EE190E022
:10064000A70196010E941C07215031094109510957
:100650005695479537952795E889F9893083EA8932
:10066000FB89208319A2EE89FF89408181E090E017
:100670009C010C8C02C0220F331F0A94E2F7422B1C
:100680004083EE89FF8940819C010D8C02C0220FBE
:10069000331F0A94E2F7422B4083EE89FF894081A1
:1006A0009C010E8C02C0220F331F0A94E2F7422BEA
:1006B0004083EE89FF8920810F8C02C0880F991F2B
:1006C0000A94E2F7809582238083DF91CF91FF9097
:1006D000EF90DF90CF90089510924601109245015F
:1006E00088EE93E0A0E0B0E080934701909348014A
:1006F000A0934901B0934A018AE091E090934401AC
:100700008093430189EA91E09093500180934F01D7
:1007100085E691E0909352018093510185EC90E041
:10072000909354018093530184EC90E09093560190
:100730008093550180EC90E090935801809357018D
:1007400081EC90E090935A018093590182EC90E003
:1007500090935C0180935B0186EC90E090935E0146
:1007600080935D0184E080935F0183E0809360016A
:1007700087E08093610185E08093620181E080934E
:10078000630108950E94B6060E941001C7EAD2E0F4
:100790000E941E012097E1F30E94A702F9CFCF9299
:1007A000DF92EF92FF920F931F93CF93DF936C0131
:1007B0007A01EB01E60EF71E00E010E0CE15DF0532
:1007C00061F06991D601ED91FC910190F081E02DED
:1007D000C6010995080F191FF1CFC801DF91CF910C
:1007E0001F910F91FF90EF90DF90CF90089520918F
:1007F0002F023091300228173907B9F49091ED019A
:100800008091EE01981789F0E091ED01F0E0E1515F
:10081000FE4F80812091ED0130E02F5F3F4F2F731D
:1008200033272093ED0190E008958FEF9FEF089517
:1008300020912F02309130022817390781F49091CE
:10084000ED018091EE01981751F0E091ED01F0E09B
:10085000E151FE4F8081992787FD909508958FEF94
:100860009FEF089520912F02309130022817390709
:1008700071F48091EE012091ED0190E0805C9F4F3A
:10088000821B910960E470E00E940807089580E0EF
:1008900090E0089520912F023091300228173907F7
:1008A00039F48FB7F8941092EE011092ED018FBFDA
:1008B0000895DC015196ED91FC915297208150965C
:1008C0008C91809582238083089520E001972FEFFB
:1008D0008F3F9207D9F70895EF92FF920F931F93DE
:1008E000CF93DF93EC018B8DEE85FF859D8581FF96
:1008F00004C08081892329F447C08081892309F0BD
:1009000043C08B899C890E94650408E010E0EE24B6
:10091000E394F12C8D899E890E946504EE85FF8504
:1009200080819D85892311F0FE2803C08E2D80953E
:10093000F822EE0C015011090115110559F78F89A4
:10094000988D0E9465048B8D81FDF0948091EE015D
:100950002091ED0190E001968F73992730E0821786
:10096000930779F0E091EE01F0E0E151FE4FF08263
:100970008091EE0190E001968F7399278093EE01AC
:1009800003C08B8D81608B8FDF91CF911F910F9171
:10099000FF90EF900895611102C00C945904DC019E
:1009A0005196ED91FC915297208150968C91282B75
:1009B00020830895DF92EF92FF920F931F93CF93BE
:1009C000DF93EC01E62E898D9A8D892B39F481E035
:1009D00090E09B838A8380E090E04DC0DFB6F8947E
:1009E0006B8D66956170CE010E94CB04898D9A8DC6
:1009F00005960E9465048B8D08E010E0FF24F394B7
:100A000081FF19C08F2D8E2121F0CE010E94590443
:100A100004C061E0CE010E94CB04898D9A8D0E94B2
:100A20006504FF0C015011090115110559F7CE019C
:100A30000E94590419C08F2D8E2129F061E0CE014A
:100A40000E94CB0403C0CE010E945904898D9A8D67
:100A50000E946504FF0C015011090115110559F799
:100A600061E0CE010E94CB04DFBE898D9A8D0E9489
:100A7000650481E090E0DF91CF911F910F91FF908D
:100A8000EF90DF90089580912F02909130020097AF
:100A900011F00C946C0408951F920F920FB60F92F0
:100AA00011242F933F934F935F936F937F938F9373
:100AB0009F93AF93BF93EF93FF930E944305FF91E2
:100AC000EF91BF91AF919F918F917F916F915F91C6
:100AD0004F913F912F910F900FBE0F901F9018953F
:100AE0001F920F920FB60F9211242F933F934F93A3
:100AF0005F936F937F938F939F93AF93BF93EF9386
:100B0000FF930E944305FF91EF91BF91AF919F9199
:100B10008F917F916F915F914F913F912F910F90A6
:100B20000FBE0F901F9018951F920F920FB60F9245
:100B300011242F933F934F935F936F937F938F93E2
:100B40009F93AF93BF93EF93FF930E944305FF9151
:100B5000EF91BF91AF919F918F917F916F915F9135
:100B60004F913F912F910F900FBE0F901F901895AE
:100B70001F93CF93DF93EC01162F61E0812F0E942A
:100B8000660161E0812F0E949F01812F90E0FC01AE
:100B9000E458FF4FE491E88BFC01E057FF4FE491EC
:100BA000F0E0EE0FFF1FE255FF4F859194919A8B75
:100BB000898BDF91CF911F9108951F93CF93DF937E
:100BC000EC01162F60E0812F0E9466018B8D81FD64
:100BD00004C061E0812F0E949F011C87812F90E05B
:100BE000FC01E458FF4FE491ED87FC01E057FF4F13
:100BF000E491F0E0EE0FFF1FEC55FF4F85919491CB
:100C00009F878E87DF91CF911F910895FF920F9359
:100C10001F93CF93DF93EC01F62E522F1B821A8283
:100C200008EE13E020E030E00C831D832E833F8329
:100C30008AE191E0998388831C8A1B8A1E8A1D8A17
:100C4000188E1F8A1A8E198E8B8D8E7F50FB81F91C
:100C50008B8F642FCE010E94B8056F2DCE01DF91DE
:100C6000CF911F910F91FF900C94DD05FC014485FD
:100C7000463150F5483028F04E3030F4EBE6F0E0E5
:100C800005C0EDE6F0E002C0ECE6F0E0508148304F
:100C900040F481E090E0042E01C0880F0A94EAF746
:100CA00010C0242F30E04E3018F42850310902C013
:100CB0002E50310981E090E0022E01C0880F0A9485
:100CC000EAF780958523808308952AE131E0FC01CD
:100CD000318320830C9436061F920F920FB60F9229
:100CE00011242F933F938F939F93AF93BF93809142
:100CF000320290913302A0913402B09135023091CA
:100D0000310223E0230F2D3720F40196A11DB11DE0
:100D100005C026E8230F0296A11DB11D20933102C4
:100D20008093320290933302A0933402B093350241
:100D30008091360290913702A0913802B091390229
:100D40000196A11DB11D8093360290933702A093A6
:100D50003802B0933902BF91AF919F918F913F912B
:100D60002F910F900FBE0F901F901895789484B517
:100D7000826084BD84B5816084BD85B5826085BD97
:100D800085B5816085BDEEE6F0E08081816080837D
:100D9000E1E8F0E010828081826080838081816060
:100DA0008083E0E8F0E0808181608083E1EBF0E027
:100DB000808184608083E0EBF0E0808181608083CB
:100DC000EAE7F0E0808184608083808182608083B4
:100DD0008081816080838081806880831092C100DF
:100DE0000895F8940C944407AA1BBB1B51E107C05B
:100DF000AA1FBB1FA617B70710F0A61BB70B881FAB
:100E0000991F5A95A9F780959095BC01CD01089539
:100E100097FB072E16F4009407D077FD09D00E94A7
:100E2000F40607FC05D03EF4909581959F4F0895F8
:100E3000709561957F4F0895A1E21A2EAA1BBB1BE6
:100E4000FD010DC0AA1FBB1FEE1FFF1FA217B30796
:100E5000E407F50720F0A21BB30BE40BF50B661FAC
:100E6000771F881F991F1A9469F760957095809570
:100E700090959B01AC01BD01CF010895EE0FFF1FBE
:100E80000590F491E02D099410E0C8ECD0E004C086
:100E9000FE010E9440072296CA3CD107C9F7F89488
:020EA000FFCF82
:100EA20048454C4C4F00000000002F02CF03D501F3
:100EB2000202E701240200000000DA04CF03320438
:060EC200F70318044A04C6
:00000001FF
