:100000000C94B3000C94DB000C94DB000C94B5064C
:100010000C94D9060C94FD060C94DB000C94DB00C8
:100020000C94DB000C94DB000C94DB000C94DB00E4
:100030000C94DB000C94DB000C94DB000C94DB00D4
:100040000C94BE010C94DB000C94BC030C94FF03D5
:100050000C94DB000C94DB000C94DB000C94DB00B4
:100060000C94DB000C94DB00000000070002010090
:100070000003040600000000000000000102040864
:100080001020408001020408102001020408102002
:10009000040404040404040402020202020203032E
:1000A00003030303000000002300260029000000D2
:1000B0000000250028002B0000000000240027007D
:1000C0002A0000C201000100110011000C0000E133
:1000D00000000A00250025002100009600001900FC
:1000E000390039003600127A00001F004600460031
:1000F00044008070000022004D004D004A00004B7B
:1001000000003600750075007200403800004A009B
:100110009C009C009900802500007200EC00EC001F
:10012000E900C0120000E900DA01DA01D701600934
:100130000000D701B603B603B303B0040000B30355
:100140006E076E076B07580200006E07DC0EDC0EB0
:10015000D80E2C010000DC0EC11DC11DBE1DDE002D
:10016000BA01BB04E50011241FBECFEFD8E0DEBF0B
:10017000CDBF11E0A0E0B1E0E0E9F1E102C00590FF
:100180000D92A632B107D9F712E0A6E2B1E001C0A4
:100190001D92AA33B107E1F711E0C4E6D1E004C033
:1001A0002297FE010E94B708CE35D107C9F70E94F9
:1001B00011050C9468080C940000089520E043E0B9
:1001C00062E086E291E00C946F0786E291E00C9485
:1001D00061081F93CF93DF9300D0CDB7DEB7162F02
:1001E00061E08DE02A8349830E94EE02612F86E25E
:1001F00091E00E9443064981642F86E291E00E94CB
:100200004306107F812F90E02A81813B91052CF4D9
:10021000622F86E291E00E94430660E08DE00F903D
:100220000F90DF91CF911F910C94EE02CF93DF934B
:10023000EC0142E15AE760E070E086E291E00E9462
:100240009F0761E084E00E94B50260E084E00E94C4
:10025000EE0264E670E080E090E00E942B0261E034
:1002600084E00E94EE0264E670E080E090E00E948C
:100270002B0228E747E060EBCE01DF91CF910C9491
:10028000E9000F931F93CF93DF93EC018B01E09173
:100290004C01F0914D010280F381E02D45E050E0EA
:1002A00060E071E08CE491E009950115110529F0F9
:1002B0000130110521F428E703C020E001C029E73F
:1002C00040E060EBCE01DF91CF911F910F910C9434
:1002D000E900462F20E060EC0C94E900242F462F23
:1002E00060E90C94E900242F462F60E80C94E900A3
:1002F00082E491E00E94160160E070E082E491E007
:100300000E94410140E855E260E070E08CE491E039
:100310000C943A04E0914C01F0914D010280F3817C
:10032000E02D45E050E060E071E08CE491E009955B
:1003300061E470E082E491E00E9469014FE750E0DF
:100340006CE370E082E491E00E946E0168EE73E07D
:1003500080E090E00E942B024FE750E06CE370E0F9
:1003600082E491E00E94730168EE73E080E090E027
:100370000C942B0282E491E00C94DD001F920F920A
:100380000FB60F9211242F933F938F939F93AF93A8
:10039000BF938091440190914501A0914601B09195
:1003A00047013091430123E0230F2D3720F40196BC
:1003B000A11DB11D05C026E8230F0296A11DB11D88
:1003C000209343018093440190934501A0934601FB
:1003D000B09347018091480190914901A0914A0151
:1003E000B0914B010196A11DB11D809348019093DE
:1003F0004901A0934A01B0934B01BF91AF919F91E6
:100400008F913F912F910F900FBE0F901F901895D5
:100410003FB7F8948091480190914901A0914A0119
:10042000B0914B0126B5A89B05C02F3F19F001964E
:10043000A11DB11D3FBF6627782F892F9A2F620F0C
:10044000711D811D911D42E0660F771F881F991F46
:100450004A95D1F70895CF92DF92EF92FF92CF9312
:10046000DF936B017C010E940802EB01C114D104EF
:10047000E104F10479F00E9408026C1B7D0B683ED8
:100480007340A0F381E0C81AD108E108F108C8510F
:10049000DC4FECCFDF91CF91FF90EF90DF90CF90CA
:1004A0000895789484B5826084BD84B5816084BDEC
:1004B00085B5826085BD85B5816085BDEEE6F0E0DD
:1004C000808181608083E1E8F0E010828081826039
:1004D0008083808181608083E0E8F0E080818160BA
:1004E0008083E1EBF0E0808184608083E0EBF0E0EA
:1004F000808181608083EAE7F0E08081846080838E
:100500008081826080838081816080838081806837
:1005100080831092C1000895833081F028F48130E7
:1005200099F08230A1F008958630A9F08730B9F0B3
:100530008430D1F4809180008F7D03C08091800051
:100540008F7780938000089584B58F7702C084B53B
:100550008F7D84BD08958091B0008F7703C0809116
:10056000B0008F7D8093B0000895CF93DF9390E02B
:10057000FC01E458FF4F2491FC01E057FF4F8491A8
:10058000882349F190E0880F991FFC01E854FF4F40
:10059000A591B49182559F4FFC01C591D4919FB70D
:1005A000611108C0F8948C91209582238C938881E6
:1005B00082230AC0623051F4F8948C91322F309526
:1005C00083238C938881822B888304C0F8948C9138
:1005D000822B8C939FBFDF91CF9108950F931F9330
:1005E000CF93DF931F92CDB7DEB7282F30E0F9010C
:1005F000E859FF4F8491F901E458FF4F1491F90134
:10060000E057FF4F04910023C9F0882321F069834C
:100610000E948C026981E02FF0E0EE0FFF1FE2558F
:10062000FF4FA591B4919FB7F8948C91611103C0CD
:100630001095812301C0812B8C939FBF0F90DF9178
:10064000CF911F910F910895FC0124853585F90103
:10065000E05CFF4F80819181F901EE5BFF4F2081CB
:100660003181821B930B8F7399270895FC01848538
:100670009585FC01E05CFF4F40815181FC01EE5B00
:10068000FF4F208131814217530741F00190F081E3
:10069000E02DE80FF91F808190E008958FEF9FEF24
:1006A0000895FC0184859585FC01E05CFF4F408145
:1006B0005181FC01EE5BFF4F2081318142175307CE
:1006C00079F0A081B181A80FB91F8C91208131816F
:1006D0002F5F3F4F2F7333273183208390E008959E
:1006E0008FEF9FEF0895FC0181A1882329F0A48951
:1006F000B5898C9186FFFBCF11A20895CF93DF932C
:10070000FC0126853785D901A05CBF4F8D919C9156
:10071000119701968F739927E901CE5BDF4F4881CE
:10072000598184179507D9F30D90BC91A02DA20F84
:10073000B31F6C93A685B785A05CBF4F11969C93A1
:100740008E93A689B7892C9181E090E0078C02C036
:10075000880F991F0A94E2F7282B2C9381E081A33C
:100760000488F589E02D80818064808381E090E0B9
:10077000DF91CF91089508951F920F920FB60F92B7
:1007800011242F933F934F938F939F93EF93FF9356
:100790008091C00082FD1CC04091C6008091F20192
:1007A0009091F30101968F7399272091F401309174
:1007B000F5018217930771F0E091F201F091F301D6
:1007C000EE54FE4F40839093F3018093F20102C0F8
:1007D0008091C600FF91EF919F918F914F913F9132
:1007E0002F910F900FBE0F901F9018958CE491E001
:1007F0000E942403892B11F00C94BB0308951F92CF
:100800000F920FB60F9211242F933F938F939F93C4
:10081000EF93FF932091AE013091AF018091B00131
:100820009091B1012817390731F48091C1008F7D73
:100830008093C10014C0E091B001F091B101E25980
:10084000FE4F20818091B0019091B10101968F738C
:1008500099279093B1018093B0012093C600FF9136
:10086000EF919F918F913F912F910F900FBE0F901D
:100870001F901895CF92DF92EF92FF92CF93DF9364
:10088000EC016A017B01411581EE58076105710594
:10089000F9F0EC89FD8981E090E008A002C0880FA2
:1008A000991F0A94E2F7808360E079E08DE390E09D
:1008B000A70196010E94930821503109410951096D
:1008C0005695479537952795211580E1380798F07B
:1008D000EC89FD89108260E874E88EE190E0A70160
:1008E00096010E94930821503109410951095695FA
:1008F000479537952795E889F9893083EA89FB89F7
:10090000208319A2EE89FF89408181E090E09C015B
:100910000C8C02C0220F331F0A94E2F7422B408353
:10092000EE89FF8940819C010D8C02C0220F331F8C
:100930000A94E2F7422B4083EE89FF8940819C01B3
:100940000E8C02C0220F331F0A94E2F7422B408321
:10095000EE89FF8920810F8C02C0880F991F0A94AD
:10096000E2F7809582238083DF91CF91FF90EF9013
:10097000DF90CF90089510924F0110924E0188EEB3
:1009800093E0A0E0B0E08093500190935101A093D8
:100990005201B09353018AE091E090934D0180930E
:1009A0004C0182EB91E090935901809358018EE6BF
:1009B00091E090935B0180935A0185EC90E09093D5
:1009C0005D0180935C0184EC90E090935F018093E3
:1009D0005E0180EC90E0909361018093600181EC76
:1009E00090E0909363018093620182EC90E0909399
:1009F00065018093640186EC90E090936701809399
:100A0000660184E08093680183E08093690187E058
:100A100080936A0185E080936B0181E080936C0193
:100A200008950E9451020E947801C6EFD3E00E940F
:100A30008A012097E1F30E94F603F9CFCF92DF926B
:100A4000EF92FF920F931F93CF93DF936C017A0184
:100A5000EB01E60EF71E00E010E0CE15DF0561F0B9
:100A60006991D601ED91FC910190F081E02DC601D4
:100A70000995080F191FF1CFC801DF91CF911F9180
:100A80000F91FF90EF90DF90CF9008952091380262
:100A90003091390228173907B9F49091F601809105
:100AA000F701981789F0E091F601F0E0E850FE4F69
:100AB00080812091F60130E02F5F3F4F2F73332765
:100AC0002093F60190E008958FEF9FEF0895209115
:100AD0003802309139022817390781F49091F601D4
:100AE0008091F701981751F0E091F601F0E0E8509D
:100AF000FE4F8081992787FD909508958FEF9FEF96
:100B0000089520913802309139022817390771F47D
:100B10008091F7012091F60190E0805C9F4F821B4D
:100B2000910960E470E00E947F08089580E090E001
:100B3000089520913802309139022817390739F485
:100B40008FB7F8941092F7011092F6018FBF0895B5
:100B5000DC015196ED91FC915297208150968C9139
:100B6000809582238083089520E001972FEF8F3FA7
:100B70009207D9F708952091380230913902281749
:100B8000390789F0FC01238D2E7F238F2FB7F8942E
:100B90001092F7011092F601909339028093380277
:100BA0002FBF81E0089580E00895EF92FF920F93A8
:100BB0001F93CF93DF93EC018B8DEE85FF859D8591
:100BC00081FF04C08081892329F447C08081892363
:100BD00009F043C08B899C890E94B40508E010E0AD
:100BE000EE24E394F12C8D899E890E94B405EE8554
:100BF000FF8580819D85892311F0FE2803C08E2DFD
:100C00008095F822EE0C015011090115110559F7D4
:100C10008F89988D0E94B4058B8D81FDF094809111
:100C2000F7012091F60190E001968F73992730E04B
:100C30008217930779F0E091F701F0E0E850FE4F5A
:100C4000F0828091F70190E001968F73992780934D
:100C5000F70103C08B8D81608B8FDF91CF911F9146
:100C60000F91FF90EF900895611102C00C94A805B8
:100C7000DC015196ED91FC915297208150968C9118
:100C8000282B20830895DF92EF92FF920F931F93FA
:100C9000CF93DF93EC01E62E898D9A8D892B39F461
:100CA00081E090E09B838A8380E090E04DC0DFB6D6
:100CB000F8946B8D66956170CE010E943406898D23
:100CC0009A8D05960E94B4058B8D08E010E0FF24F4
:100CD000F39481FF19C08F2D8E2121F0CE010E9447
:100CE000A80504C061E0CE010E943406898D9A8D6A
:100CF0000E94B405FF0C015011090115110559F7A7
:100D0000CE010E94A80519C08F2D8E2129F061E027
:100D1000CE010E94340603C0CE010E94A805898D31
:100D20009A8D0E94B405FF0C01501109011511059F
:100D300059F761E0CE010E943406DFBE898D9A8D9D
:100D40000E94B40581E090E0DF91CF911F910F9157
:100D5000FF90EF90DF9008958091380290913902D2
:100D6000009711F00C94D50508951F920F920FB6BD
:100D70000F9211242F933F934F935F936F937F9321
:100D80008F939F93AF93BF93EF93FF930E94AC0613
:100D9000FF91EF91BF91AF919F918F917F916F9153
:100DA0005F914F913F912F910F900FBE0F901F9029
:100DB00018951F920F920FB60F9211242F933F9305
:100DC0004F935F936F937F938F939F93AF93BF9353
:100DD000EF93FF930E94AC06FF91EF91BF91AF910B
:100DE0009F918F917F916F915F914F913F912F9143
:100DF0000F900FBE0F901F9018951F920F920FB675
:100E00000F9211242F933F934F935F936F937F9390
:100E10008F939F93AF93BF93EF93FF930E94AC0682
:100E2000FF91EF91BF91AF919F918F917F916F91C2
:100E30005F914F913F912F910F900FBE0F901F9098
:100E400018951F93CF93DF93EC01162F61E0812F4C
:100E50000E94B50261E0812F0E94EE02812F90E096
:100E6000FC01E458FF4FE491E88BFC01E057FF4F91
:100E7000E491F0E0EE0FFF1FE255FF4F8591949152
:100E80009A8B898BDF91CF911F9108951F93CF93F8
:100E9000DF93EC01162F60E0812F0E94B5028B8D4D
:100EA00081FD04C061E0812F0E94EE021C87812F2A
:100EB00090E0FC01E458FF4FE491ED87FC01E0571E
:100EC000FF4FE491F0E0EE0FFF1FEC55FF4F8591CF
:100ED00094919F878E87DF91CF911F910895FF9204
:100EE0000F931F93CF93DF93EC01F62E522F1B82AB
:100EF0001A8208EE13E020E030E00C831D832E837D
:100F00003F838AE191E0998388831C8A1B8A1E8A29
:100F10001D8A188E1F8A1A8E198E8B8D8E7F50FB1C
:100F200081F98B8F642FCE010E9421076F2DCE0196
:100F3000DF91CF911F910F91FF900C9446070F9373
:100F40001F93CF93DF93EC011A8E198E188E1F8A90
:100F50001E8A1D8AA2ECB0E080E090E0FD010591C0
:100F6000159125913491041715072607370719F5B0
:100F70004CE0489F9001499F300D1124F901EA533C
:100F8000FF4F859194919C8B8B8BF901E853FF4F18
:100F9000859194919E8B8D8BF901E653FF4F85913E
:100FA0009491988F8F8B24533F4FF90185919491A1
:100FB0009A8F898F08C001961C968D30910509F093
:100FC000CDCF1C8A1B8A8F89988D892B09F443C049
:100FD0008C858631E0F520916800883050F091E0F2
:100FE0008E3008F490E081E001C0880F9A95EAF70E
:100FF00001C084E0822B809368002C85283038F073
:101000002E3040F0263148F0E0E0F0E008C0EDE698
:10101000F0E005C0EBE6F0E002C0ECE6F0E0308185
:10102000283030F481E001C0880F2A95EAF70DC01E
:10103000822F90E02E3010F4089701C00E9791E0B7
:1010400001C0990F8A95EAF7892F832B8083898DB8
:101050009A8D0E94B405CE01DF91CF911F910F911F
:101060000C94BB05FC014485463150F5483028F00E
:101070004E3030F4EBE6F0E005C0EDE6F0E002C003
:10108000ECE6F0E05081483040F481E090E0042E3E
:1010900001C0880F0A94EAF710C0242F30E04E30C8
:1010A00018F42850310902C02E50310981E090E037
:1010B000022E01C0880F0A94EAF780958523808369
:1010C00008952AE131E0FC01318320830C94320839
:1010D000F8940C94BB08AA1BBB1B51E107C0AA1FC4
:1010E000BB1FA617B70710F0A61BB70B881F991FC9
:1010F0005A95A9F780959095BC01CD01089597FB6D
:10110000072E16F4009407D077FD09D00E946B08D3
:1011100007FC05D03EF4909581959F4F08957095FA
:1011200061957F4F0895A1E21A2EAA1BBB1BFD01FA
:101130000DC0AA1FBB1FEE1FFF1FA217B307E407B6
:10114000F50720F0A21BB30BE40BF50B661F771F0E
:10115000881F991F1A9469F76095709580959095EE
:101160009B01AC01BD01CF010895EE0FFF1F05905B
:10117000F491E02D099411E0C4E6D1E004C0FE0131
:101180000E94B7082296C636D107C9F7F894FFCF58
:1011900048454C4C4F00000000007E031E05240310
:1011A0005103360373030000000043061E0581054A
:0611B000460567059905E4
:00000001FF
