:100000000C94B3000C94DB000C94DB000C949D0664
:100010000C94C1060C94E5060C94DB000C94DB00F8
:100020000C94DB000C94DB000C94DB000C94DB00E4
:100030000C94DB000C94DB000C94DB000C94DB00D4
:100040000C94A6010C94DB000C94A4030C94E7031D
:100050000C94DB000C94DB000C94DB000C94DB00B4
:100060000C94DB000C94DB00000000070002010090
:100070000003040600000000000000000102040864
:100080001020408001020408102001020408102002
:10009000040404040404040402020202020203032E
:1000A00003030303000000002300260029000000D2
:1000B0000000250028002B0000000000240027007D
:1000C0002A0000C201000100110011000C0000E133
:1000D00000000A00250025002100009600001900FC
:1000E000390039003600127A00001F004600460031
:1000F00044008070000022004D004D004A00004B7B
:1001000000003600750075007200403800004A009B
:100110009C009C009900802500007200EC00EC001F
:10012000E900C0120000E900DA01DA01D701600934
:100130000000D701B603B603B303B0040000B30355
:100140006E076E076B07580200006E07DC0EDC0EB0
:10015000D80E2C010000DC0EC11DC11DBE1DDD002E
:10016000A201A304E40011241FBECFEFD8E0DEBF3C
:10017000CDBF11E0A0E0B1E0E0E6F1E102C0059002
:100180000D92A832B107D9F712E0A8E2B1E001C0A0
:100190001D92AC33B107E1F711E0C4E6D1E004C031
:1001A0002297FE010E949F08CE35D107C9F70E9411
:1001B000F9040C9450080C94000020E043E062E045
:1001C00088E291E00C94570788E291E00C9449088A
:1001D0001F93CF93DF9300D0CDB7DEB7162F61E02A
:1001E000809100012A8349830E94D602612F88E210
:1001F00091E00E942B064981642F88E291E00E94E1
:100200002B06107F812F90E02A81813B91052CF4F1
:10021000622F88E291E00E942B0660E0809100014D
:100220000F900F90DF91CF911F910C94D602CF9336
:10023000DF93EC0142E15AE760E070E088E291E090
:100240000E94870761E0809101010E949D0260E0A9
:10025000809101010E94D60264E670E080E090E0A7
:100260000E94130261E0809101010E94D60264E6BF
:1002700070E080E090E00E94130228E747E060EB26
:10028000CE010E94E80040E855E260E070E08EE4B4
:1002900091E0DF91CF910C9422040F931F93CF93A1
:1002A000DF93EC018B01E0914E01F0914F01028050
:1002B000F381E02D45E050E062E071E08EE491E0F2
:1002C00009950115110529F00130110521F428E7E0
:1002D00003C020E001C029E740E060EBCE01DF91E0
:1002E000CF911F910F910C94E800462F20E060EC15
:1002F0000C94E800242F462F60E90C94E80061E09C
:1003000070E084E491E00C944D016CE370E084E4CF
:1003100091E00E9475014FE750E06CE370E084E4E7
:1003200091E00E947A01E0914E01F0914F0102802C
:10033000F381E02D45E050E062E071E08EE491E071
:100340000995F1CF84E491E00C9417011F920F926C
:100350000FB60F9211242F933F938F939F93AF93D8
:10036000BF938091460190914701A0914801B091BF
:1003700049013091450123E0230F2D3720F40196E8
:10038000A11DB11D05C026E8230F0296A11DB11DB8
:10039000209345018093460190934701A093480123
:1003A000B093490180914A0190914B01A0914C0179
:1003B000B0914D010196A11DB11D80934A0190930A
:1003C0004B01A0934C01B0934D01BF91AF919F9110
:1003D0008F913F912F910F900FBE0F901F90189506
:1003E0003FB7F89480914A0190914B01A0914C0144
:1003F000B0914D0126B5A89B05C02F3F19F001967D
:10040000A11DB11D3FBF6627782F892F9A2F620F3C
:10041000711D811D911D42E0660F771F881F991F76
:100420004A95D1F70895CF92DF92EF92FF92CF9342
:10043000DF936B017C010E94F001EB01C114D10438
:10044000E104F10479F00E94F0016C1B7D0B683E21
:100450007340A0F381E0C81AD108E108F108C8513F
:10046000DC4FECCFDF91CF91FF90EF90DF90CF90FA
:100470000895789484B5826084BD84B5816084BD1C
:1004800085B5826085BD85B5816085BDEEE6F0E00D
:10049000808181608083E1E8F0E010828081826069
:1004A0008083808181608083E0E8F0E080818160EA
:1004B0008083E1EBF0E0808184608083E0EBF0E01A
:1004C000808181608083EAE7F0E0808184608083BE
:1004D0008081826080838081816080838081806868
:1004E00080831092C1000895833081F028F4813018
:1004F00099F08230A1F008958630A9F08730B9F0E4
:100500008430D1F4809180008F7D03C08091800081
:100510008F7780938000089584B58F7702C084B56B
:100520008F7D84BD08958091B0008F7703C0809146
:10053000B0008F7D8093B0000895CF93DF9390E05B
:10054000FC01E458FF4F2491FC01E057FF4F8491D8
:10055000882349F190E0880F991FFC01E854FF4F70
:10056000A591B49182559F4FFC01C591D4919FB73D
:10057000611108C0F8948C91209582238C93888116
:1005800082230AC0623051F4F8948C91322F309556
:1005900083238C938881822B888304C0F8948C9168
:1005A000822B8C939FBFDF91CF9108950F931F9360
:1005B000CF93DF931F92CDB7DEB7282F30E0F9013C
:1005C000E859FF4F8491F901E458FF4F1491F90164
:1005D000E057FF4F04910023C9F0882321F069837D
:1005E0000E9474026981E02FF0E0EE0FFF1FE255D8
:1005F000FF4FA591B4919FB7F8948C91611103C0FE
:100600001095812301C0812B8C939FBF0F90DF91A8
:10061000CF911F910F910895FC0124853585F90133
:10062000E05CFF4F80819181F901EE5BFF4F2081FB
:100630003181821B930B8F7399270895FC01848568
:100640009585FC01E05CFF4F40815181FC01EE5B30
:10065000FF4F208131814217530741F00190F08113
:10066000E02DE80FF91F808190E008958FEF9FEF54
:100670000895FC0184859585FC01E05CFF4F408175
:100680005181FC01EE5BFF4F2081318142175307FE
:1006900079F0A081B181A80FB91F8C91208131819F
:1006A0002F5F3F4F2F7333273183208390E00895CE
:1006B0008FEF9FEF0895FC0181A1882329F0A48981
:1006C000B5898C9186FFFBCF11A20895CF93DF935C
:1006D000FC0126853785D901A05CBF4F8D919C9187
:1006E000119701968F739927E901CE5BDF4F4881FF
:1006F000598184179507D9F30D90BC91A02DA20FB5
:10070000B31F6C93A685B785A05CBF4F11969C93D1
:100710008E93A689B7892C9181E090E0078C02C066
:10072000880F991F0A94E2F7282B2C9381E081A36C
:100730000488F589E02D80818064808381E090E0E9
:10074000DF91CF91089508951F920F920FB60F92E7
:1007500011242F933F934F938F939F93EF93FF9386
:100760008091C00082FD1CC04091C6008091F401C0
:100770009091F50101968F7399272091F6013091A0
:10078000F7018217930771F0E091F401F091F50100
:10079000EC54FE4F40839093F5018093F40102C026
:1007A0008091C600FF91EF919F918F914F913F9162
:1007B0002F910F900FBE0F901F9018958EE491E02F
:1007C0000E940C03892B11F00C94A30308951F922F
:1007D0000F920FB60F9211242F933F938F939F93F5
:1007E000EF93FF932091B0013091B1018091B2015C
:1007F0009091B3012817390731F48091C1008F7DA2
:100800008093C10014C0E091B201F091B301E059AE
:10081000FE4F20818091B2019091B30101968F73B8
:1008200099279093B3018093B2012093C600FF9162
:10083000EF919F918F913F912F910F900FBE0F904D
:100840001F901895CF92DF92EF92FF92CF93DF9394
:10085000EC016A017B01411581EE580761057105C4
:10086000F9F0EC89FD8981E090E008A002C0880FD2
:10087000991F0A94E2F7808360E079E08DE390E0CD
:10088000A70196010E947B082150310941095109B5
:100890005695479537952795211580E1380798F0AB
:1008A000EC89FD89108260E874E88EE190E0A70190
:1008B00096010E947B082150310941095109569542
:1008C000479537952795E889F9893083EA89FB8927
:1008D000208319A2EE89FF89408181E090E09C018C
:1008E0000C8C02C0220F331F0A94E2F7422B408384
:1008F000EE89FF8940819C010D8C02C0220F331FBD
:100900000A94E2F7422B4083EE89FF8940819C01E3
:100910000E8C02C0220F331F0A94E2F7422B408351
:10092000EE89FF8920810F8C02C0880F991F0A94DD
:10093000E2F7809582238083DF91CF91FF90EF9043
:10094000DF90CF900895109251011092500188EEDF
:1009500093E0A0E0B0E08093520190935301A09304
:100960005401B09355018CE091E090934F01809336
:100970004E0184EB91E090935B0180935A0180E7F4
:1009800091E090935D0180935C0185EC90E0909301
:100990005F0180935E0184EC90E09093610180930D
:1009A000600180EC90E0909363018093620181ECA0
:1009B00090E0909365018093640182EC90E09093C5
:1009C00067018093660186EC90E0909369018093C3
:1009D000680184E080936A0183E080936B0187E083
:1009E00080936C0185E080936D0181E080936E01BE
:1009F00008950E9439020E947F01CEEDD3E00E944B
:100A000085012097E1F30E94DE03F9CFCF92DF92B8
:100A1000EF92FF920F931F93CF93DF936C017A01B4
:100A2000EB01E60EF71E00E010E0CE15DF0561F0E9
:100A30006991D601ED91FC910190F081E02DC60104
:100A40000995080F191FF1CFC801DF91CF911F91B0
:100A50000F91FF90EF90DF90CF90089520913A0290
:100A600030913B0228173907B9F49091F801809131
:100A7000F901981789F0E091F801F0E0E650FE4F97
:100A800080812091F80130E02F5F3F4F2F73332793
:100A90002093F80190E008958FEF9FEF0895209143
:100AA0003A0230913B022817390781F49091F801FE
:100AB0008091F901981751F0E091F801F0E0E650CB
:100AC000FE4F8081992787FD909508958FEF9FEFC6
:100AD000089520913A0230913B022817390771F4AA
:100AE0008091F9012091F80190E0805C9F4F821B7A
:100AF000910960E470E00E946708089580E090E04A
:100B0000089520913A0230913B022817390739F4B1
:100B10008FB7F8941092F9011092F8018FBF0895E1
:100B2000DC015196ED91FC915297208150968C9169
:100B3000809582238083089520E001972FEF8F3FD7
:100B40009207D9F7089520913A0230913B02281775
:100B5000390789F0FC01238D2E7F238F2FB7F8945E
:100B60001092F9011092F80190933B0280933A029F
:100B70002FBF81E0089580E00895EF92FF920F93D8
:100B80001F93CF93DF93EC018B8DEE85FF859D85C1
:100B900081FF04C08081892329F447C08081892393
:100BA00009F043C08B899C890E949C0508E010E0F5
:100BB000EE24E394F12C8D899E890E949C05EE859C
:100BC000FF8580819D85892311F0FE2803C08E2D2D
:100BD0008095F822EE0C015011090115110559F705
:100BE0008F89988D0E949C058B8D81FDF09480915A
:100BF000F9012091F80190E001968F73992730E078
:100C00008217930779F0E091F901F0E0E650FE4F8A
:100C1000F0828091F90190E001968F73992780937B
:100C2000F90103C08B8D81608B8FDF91CF911F9174
:100C30000F91FF90EF900895611102C00C94900500
:100C4000DC015196ED91FC915297208150968C9148
:100C5000282B20830895DF92EF92FF920F931F932A
:100C6000CF93DF93EC01E62E898D9A8D892B39F491
:100C700081E090E09B838A8380E090E04DC0DFB606
:100C8000F8946B8D66956170CE010E941C06898D6B
:100C90009A8D05960E949C058B8D08E010E0FF243C
:100CA000F39481FF19C08F2D8E2121F0CE010E9477
:100CB000900504C061E0CE010E941C06898D9A8DCA
:100CC0000E949C05FF0C015011090115110559F7EF
:100CD000CE010E94900519C08F2D8E2129F061E070
:100CE000CE010E941C0603C0CE010E949005898D92
:100CF0009A8D0E949C05FF0C0150110901151105E8
:100D000059F761E0CE010E941C06DFBE898D9A8DE5
:100D10000E949C0581E090E0DF91CF911F910F919F
:100D2000FF90EF90DF90089580913A0290913B02FE
:100D3000009711F00C94BD0508951F920F920FB605
:100D40000F9211242F933F934F935F936F937F9351
:100D50008F939F93AF93BF93EF93FF930E9494065B
:100D6000FF91EF91BF91AF919F918F917F916F9183
:100D70005F914F913F912F910F900FBE0F901F9059
:100D800018951F920F920FB60F9211242F933F9335
:100D90004F935F936F937F938F939F93AF93BF9383
:100DA000EF93FF930E949406FF91EF91BF91AF9153
:100DB0009F918F917F916F915F914F913F912F9173
:100DC0000F900FBE0F901F9018951F920F920FB6A5
:100DD0000F9211242F933F934F935F936F937F93C1
:100DE0008F939F93AF93BF93EF93FF930E949406CB
:100DF000FF91EF91BF91AF919F918F917F916F91F3
:100E00005F914F913F912F910F900FBE0F901F90C8
:100E100018951F93CF93DF93EC01162F61E0812F7C
:100E20000E949D0261E0812F0E94D602812F90E0F6
:100E3000FC01E458FF4FE491E88BFC01E057FF4FC1
:100E4000E491F0E0EE0FFF1FE255FF4F8591949182
:100E50009A8B898BDF91CF911F9108951F93CF9328
:100E6000DF93EC01162F60E0812F0E949D028B8D95
:100E700081FD04C061E0812F0E94D6021C87812F72
:100E800090E0FC01E458FF4FE491ED87FC01E0574E
:100E9000FF4FE491F0E0EE0FFF1FEC55FF4F8591FF
:100EA00094919F878E87DF91CF911F910895FF9234
:100EB0000F931F93CF93DF93EC01F62E522F1B82DB
:100EC0001A8208EE13E020E030E00C831D832E83AD
:100ED0003F838CE191E0998388831C8A1B8A1E8A58
:100EE0001D8A188E1F8A1A8E198E8B8D8E7F50FB4D
:100EF00081F98B8F642FCE010E9409076F2DCE01DF
:100F0000DF91CF911F910F91FF900C942E070F93BB
:100F10001F93CF93DF93EC011A8E198E188E1F8AC0
:100F20001E8A1D8AA2ECB0E080E090E0FD010591F0
:100F3000159125913491041715072607370719F5E0
:100F40004CE0489F9001499F300D1124F901EA536C
:100F5000FF4F859194919C8B8B8BF901E853FF4F48
:100F6000859194919E8B8D8BF901E653FF4F85916E
:100F70009491988F8F8B24533F4FF90185919491D1
:100F80009A8F898F08C001961C968D30910509F0C3
:100F9000CDCF1C8A1B8A8F89988D892B09F443C079
:100FA0008C858631E0F520916800883050F091E022
:100FB0008E3008F490E081E001C0880F9A95EAF73E
:100FC00001C084E0822B809368002C85283038F0A3
:100FD0002E3040F0263148F0E0E0F0E008C0EDE6C9
:100FE000F0E005C0EBE6F0E002C0ECE6F0E03081B6
:100FF000283030F481E001C0880F2A95EAF70DC04F
:10100000822F90E02E3010F4089701C00E9791E0E7
:1010100001C0990F8A95EAF7892F832B8083898DE8
:101020009A8D0E949C05CE01DF91CF911F910F9167
:101030000C94A305FC014485463150F5483028F056
:101040004E3030F4EBE6F0E005C0EDE6F0E002C033
:10105000ECE6F0E05081483040F481E090E0042E6E
:1010600001C0880F0A94EAF710C0242F30E04E30F8
:1010700018F42850310902C02E50310981E090E067
:10108000022E01C0880F0A94EAF780958523808399
:1010900008952CE131E0FC01318320830C941A087F
:1010A000F8940C94A308AA1BBB1B51E107C0AA1F0C
:1010B000BB1FA617B70710F0A61BB70B881F991FF9
:1010C0005A95A9F780959095BC01CD01089597FB9D
:1010D000072E16F4009407D077FD09D00E9453081C
:1010E00007FC05D03EF4909581959F4F089570952B
:1010F00061957F4F0895A1E21A2EAA1BBB1BFD012B
:101100000DC0AA1FBB1FEE1FFF1FA217B307E407E6
:10111000F50720F0A21BB30BE40BF50B661F771F3E
:10112000881F991F1A9469F760957095809590951E
:101130009B01AC01BD01CF010895EE0FFF1F05908B
:10114000F491E02D099411E0C4E6D1E004C0FE0161
:101150000E949F082296C636D107C9F7F894FFCFA0
:101160000D0448454C4C4F00000000006603060586
:101170000C0339031E035B03000000002B06060569
:0811800069052E054F058105EC
:00000001FF
