:100000000C9465000C948D000C948D000C943C06AF
:100010000C9460060C9484060C948D000C948D0056
:100020000C948D000C948D000C948D000C948D001C
:100030000C948D000C948D000C948D000C948D000C
:100040000C945F010C948D000C945D030C94A00340
:100050000C948D000C948D000C948D000C948D00EC
:100060000C948D000C948D0000000007000201002C
:100070000003040600000000000000000102040864
:100080001020408001020408102001020408102002
:10009000040404040404040402020202020203032E
:1000A00003030303000000002300260029000000D2
:1000B0000000250028002B0000000000240027007D
:1000C0002A008F005B015C04960011241FBECFEF55
:1000D000D8E0DEBFCDBF11E0A0E0B1E0E8E7FFE08F
:1000E00002C005900D92A632B107D9F712E0A6E240
:1000F000B1E001C01D92AA33B107E1F710E0C8ECEE
:10010000D0E004C02297FE010E94AB07C23CD10799
:10011000C9F70E94B2040C945C070C94000020E024
:1001200043E062E086E291E00C94F60686E291E01C
:100130000C9455071F93CF93DF9300D0CDB7DEB754
:10014000162F61E08DE02A8349830E948F02612F80
:1001500086E291E00E94CA054981642F86E291E01F
:100160000E94CA05107F812F90E02A81813B910572
:100170002CF4622F86E291E00E94CA0560E08DE0D7
:100180000F900F90DF91CF911F910C948F02CF931E
:10019000DF93EC0161E084E00E94560260E084E0BD
:1001A0000E948F0264E670E080E090E00E94CC0143
:1001B00061E084E00E948F0264E670E080E090E0FD
:1001C0000E94CC0128E747E060EBCE01DF91CF91A0
:1001D0000C949A000F931F93CF93DF93EC018B0144
:1001E000E0914C01F0914D010280F381E02D45E05A
:1001F00050E060E071E08CE491E009950115110593
:1002000029F00130110521F428E703C020E001C0E6
:1002100029E740E060EBCE01DF91CF911F910F9174
:100220000C949A00462F20E060EC0C949A00242F46
:10023000462F60E90C949A006115710581F0DB018D
:100240000D900020E9F7AD0141505109461B570BB5
:10025000DC01ED91FC910280F381E02D099480E0B6
:1002600090E0089561E070E082E491E00E94EA008D
:1002700040E855E260E070E08CE491E00C94DB0330
:1002800060E071E08CE491E00E941C016CE370E09E
:1002900082E491E00E9412014FE750E06CE370E0CD
:1002A00082E491E00E94170160E071E08CE491E04B
:1002B0000E941C01F9CF82E491E00C94C7001F92C8
:1002C0000F920FB60F9211242F933F938F939F930A
:1002D000AF93BF938091440190914501A091460155
:1002E000B09147013091430123E0230F2D3720F4D3
:1002F0000196A11DB11D05C026E8230F0296A11D80
:10030000B11D209343018093440190934501A09334
:100310004601B09347018091480190914901A09115
:100320004A01B0914B010196A11DB11D8093480176
:1003300090934901A0934A01B0934B01BF91AF91B3
:100340009F918F913F912F910F900FBE0F901F9013
:1003500018953FB7F8948091480190914901A09178
:100360004A01B0914B0126B5A89B05C02F3F19F05B
:100370000196A11DB11D3FBF6627782F892F9A2FA7
:10038000620F711D811D911D42E0660F771F881F4E
:10039000991F4A95D1F70895CF92DF92EF92FF927D
:1003A000CF93DF936B017C010E94A901EB01C11483
:1003B000D104E104F10479F00E94A9016C1B7D0BCA
:1003C000683E7340A0F381E0C81AD108E108F10843
:1003D000C851DC4FECCFDF91CF91FF90EF90DF90D1
:1003E000CF900895789484B5826084BD84B581608F
:1003F00084BD85B5826085BD85B5816085BDEEE62D
:10040000F0E0808181608083E1E8F0E0108280810B
:1004100082608083808181608083E0E8F0E0808179
:1004200081608083E1EBF0E0808184608083E0EB99
:10043000F0E0808181608083EAE7F0E08081846081
:1004400080838081826080838081816080838081DD
:10045000806880831092C1000895833081F028F471
:10046000813099F08230A1F008958630A9F087306C
:10047000B9F08430D1F4809180008F7D03C08091E9
:1004800080008F7780938000089584B58F7702C0B5
:1004900084B58F7D84BD08958091B0008F7703C0AF
:1004A0008091B0008F7D8093B0000895CF93DF934B
:1004B00090E0FC01E458FF4F2491FC01E057FF4F0E
:1004C0008491882349F190E0880F991FFC01E8543A
:1004D000FF4FA591B49182559F4FFC01C591D491D6
:1004E0009FB7611108C0F8948C91209582238C935A
:1004F000888182230AC0623051F4F8948C91322FA3
:10050000309583238C938881822B888304C0F89450
:100510008C91822B8C939FBFDF91CF9108950F9385
:100520001F93CF93DF931F92CDB7DEB7282F30E014
:10053000F901E859FF4F8491F901E458FF4F1491F4
:10054000F901E057FF4F04910023C9F0882321F0FF
:1005500069830E942D026981E02FF0E0EE0FFF1FFA
:10056000E255FF4FA591B4919FB7F8948C9161111A
:1005700003C01095812301C0812B8C939FBF0F90E6
:10058000DF91CF911F910F910895FC01248535854E
:10059000F901E05CFF4F80819181F901EE5BFF4F33
:1005A00020813181821B930B8F7399270895FC0161
:1005B00084859585FC01E05CFF4F40815181FC0101
:1005C000EE5BFF4F208131814217530741F00190CC
:1005D000F081E02DE80FF91F808190E008958FEF02
:1005E0009FEF0895FC0184859585FC01E05CFF4F39
:1005F00040815181FC01EE5BFF4F20813181421728
:10060000530779F0A081B181A80FB91F8C91208187
:1006100031812F5F3F4F2F7333273183208390E049
:1006200008958FEF9FEF0895FC0181A1882329F0A1
:10063000A489B5898C9186FFFBCF11A20895CF9331
:10064000DF93FC0126853785D901A05CBF4F8D91D2
:100650009C91119701968F739927E901CE5BDF4F2B
:100660004881598184179507D9F30D90BC91A02D2D
:10067000A20FB31F6C93A685B785A05CBF4F1196E0
:100680009C938E93A689B7892C9181E090E0078C8A
:1006900002C0880F991F0A94E2F7282B2C9381E05F
:1006A00081A30488F589E02D80818064808381E0C6
:1006B00090E0DF91CF91089508951F920F920FB6A9
:1006C0000F9211242F933F934F938F939F93EF9308
:1006D000FF938091C00082FD1CC04091C6008091B4
:1006E000F2019091F30101968F7399272091F40103
:1006F0003091F5018217930771F0E091F201F091CA
:10070000F301EE54FE4F40839093F3018093F20186
:1007100002C08091C600FF91EF919F918F914F9100
:100720003F912F910F900FBE0F901F9018958CE462
:1007300091E00E94C502892B11F00C945C0308958E
:100740001F920F920FB60F9211242F933F938F9306
:100750009F93EF93FF932091AE013091AF01809171
:10076000B0019091B1012817390731F48091C1008F
:100770008F7D8093C10014C0E091B001F091B10170
:10078000E259FE4F20818091B0019091B101019614
:100790008F7399279093B1018093B0012093C60085
:1007A000FF91EF919F918F913F912F910F900FBEED
:1007B0000F901F901895CF92DF92EF92FF92CF93F8
:1007C000DF93EC016A017B01411581EE5807610559
:1007D0007105F9F0EC89FD8981E090E008A002C084
:1007E000880F991F0A94E2F7808360E079E08DE337
:1007F00090E0A70196010E94870721503109410925
:1008000051095695479537952795211580E1380769
:1008100098F0EC89FD89108260E874E88EE190E040
:10082000A70196010E94870721503109410951090A
:100830005695479537952795E889F9893083EA8950
:10084000FB89208319A2EE89FF89408181E090E035
:100850009C010C8C02C0220F331F0A94E2F7422B3A
:100860004083EE89FF8940819C010D8C02C0220FDC
:10087000331F0A94E2F7422B4083EE89FF894081BF
:100880009C010E8C02C0220F331F0A94E2F7422B08
:100890004083EE89FF8920810F8C02C0880F991F49
:1008A0000A94E2F7809582238083DF91CF91FF90B5
:1008B000EF90DF90CF90089510924F0110924E016B
:1008C00088EE93E0A0E0B0E0809350019093510156
:1008D000A0935201B09353018AE091E090934D01AF
:1008E00080934C0182EB91E09093590180935801E1
:1008F0008EE691E090935B0180935A0185EC90E045
:1009000090935D0180935C0184EC90E090935F0193
:1009100080935E0180EC90E0909361018093600190
:1009200081EC90E0909363018093620182EC90E00F
:10093000909365018093640186EC90E09093670149
:100940008093660184E08093680183E0809369016D
:1009500087E080936A0185E080936B0181E080935A
:100960006C0108950E94F2010E943201C7E9D3E0B0
:100970000E9440012097E1F30E949703F9CFCF92A4
:10098000DF92EF92FF920F931F93CF93DF936C014F
:100990007A01EB01E60EF71E00E010E0CE15DF0550
:1009A00061F06991D601ED91FC910190F081E02D0B
:1009B000C6010995080F191FF1CFC801DF91CF912A
:1009C0001F910F91FF90EF90DF90CF9008952091AD
:1009D00038023091390228173907B9F49091F6019D
:1009E0008091F701981789F0E091F601F0E0E85066
:1009F000FE4F80812091F60130E02F5F3F4F2F7333
:100A000033272093F60190E008958FEF9FEF08952C
:100A100020913802309139022817390781F49091DA
:100A2000F6018091F701981751F0E091F601F0E09E
:100A3000E850FE4F8081992787FD909508958FEFAC
:100A40009FEF089520913802309139022817390715
:100A500071F48091F7012091F60190E0805C9F4F46
:100A6000821B910960E470E00E947307089580E0A2
:100A700090E0089520913802309139022817390703
:100A800039F48FB7F8941092F7011092F6018FBFE6
:100A90000895DC015196ED91FC915297208150967A
:100AA0008C91809582238083089520E001972FEF19
:100AB0008F3F9207D9F70895EF92FF920F931F93FC
:100AC000CF93DF93EC018B8DEE85FF859D8581FFB4
:100AD00004C08081892329F447C08081892309F0DB
:100AE00043C08B899C890E94550508E010E0EE24E4
:100AF000E394F12C8D899E890E945505EE85FF8532
:100B000080819D85892311F0FE2803C08E2D80955C
:100B1000F822EE0C015011090115110559F78F89C2
:100B2000988D0E9455058B8D81FDF0948091F70181
:100B30002091F60190E001968F73992730E082179B
:100B4000930779F0E091F701F0E0E850FE4FF08272
:100B50008091F70190E001968F7399278093F701B8
:100B600003C08B8D81608B8FDF91CF911F910F918F
:100B7000FF90EF900895611102C00C944905DC01CB
:100B80005196ED91FC915297208150968C91282B93
:100B900020830895DF92EF92FF920F931F93CF93DC
:100BA000DF93EC01E62E898D9A8D892B39F481E053
:100BB00090E09B838A8380E090E04DC0DFB6F8949C
:100BC0006B8D66956170CE010E94BB05898D9A8DF3
:100BD00005960E9455058B8D08E010E0FF24F394E4
:100BE00081FF19C08F2D8E2121F0CE010E94490571
:100BF00004C061E0CE010E94BB05898D9A8D0E94E0
:100C00005505FF0C015011090115110559F7CE01C9
:100C10000E94490519C08F2D8E2129F061E0CE0177
:100C20000E94BB0503C0CE010E944905898D9A8DA3
:100C30000E945505FF0C015011090115110559F7C6
:100C400061E0CE010E94BB05DFBE898D9A8D0E94B6
:100C5000550581E090E0DF91CF911F910F91FF90BA
:100C6000EF90DF90089580913802909139020097BB
:100C700011F00C945C0508951F920F920FB60F921D
:100C800011242F933F934F935F936F937F938F9391
:100C90009F93AF93BF93EF93FF930E943306FF910F
:100CA000EF91BF91AF919F918F917F916F915F91E4
:100CB0004F913F912F910F900FBE0F901F9018955D
:100CC0001F920F920FB60F9211242F933F934F93C1
:100CD0005F936F937F938F939F93AF93BF93EF93A4
:100CE000FF930E943306FF91EF91BF91AF919F91C7
:100CF0008F917F916F915F914F913F912F910F90C5
:100D00000FBE0F901F9018951F920F920FB60F9263
:100D100011242F933F934F935F936F937F938F9300
:100D20009F93AF93BF93EF93FF930E943306FF917E
:100D3000EF91BF91AF919F918F917F916F915F9153
:100D40004F913F912F910F900FBE0F901F901895CC
:100D50001F93CF93DF93EC01162F61E0812F0E9448
:100D6000560261E0812F0E948F02812F90E0FC01EA
:100D7000E458FF4FE491E88BFC01E057FF4FE4910A
:100D8000F0E0EE0FFF1FE255FF4F859194919A8B93
:100D9000898BDF91CF911F9108951F93CF93DF939C
:100DA000EC01162F60E0812F0E9456028B8D81FD91
:100DB00004C061E0812F0E948F021C87812F90E088
:100DC000FC01E458FF4FE491ED87FC01E057FF4F31
:100DD000E491F0E0EE0FFF1FEC55FF4F85919491E9
:100DE0009F878E87DF91CF911F910895FF920F9378
:100DF0001F93CF93DF93EC01F62E522F1B821A82A2
:100E000008EE13E020E030E00C831D832E833F8347
:100E10008AE191E0998388831C8A1B8A1E8A1D8A35
:100E2000188E1F8A1A8E198E8B8D8E7F50FB81F93A
:100E30008B8F642FCE010E94A8066F2DCE01DF910B
:100E4000CF911F910F91FF900C94CD06FC0144852A
:100E5000463150F5483028F04E3030F4EBE6F0E003
:100E600005C0EDE6F0E002C0ECE6F0E0508148306D
:100E700040F481E090E0042E01C0880F0A94EAF764
:100E800010C0242F30E04E3018F42850310902C031
:100E90002E50310981E090E0022E01C0880F0A94A3
:100EA000EAF780958523808308952AE131E0FC01EB
:100EB000318320830C942607F8940C94AF07AA1B67
:100EC000BB1B51E107C0AA1FBB1FA617B70710F035
:100ED000A61BB70B881F991F5A95A9F78095909567
:100EE000BC01CD01089597FB072E16F4009407D09E
:100EF00077FD09D00E945F0707FC05D03EF490956E
:100F000081959F4F0895709561957F4F0895A1E257
:100F10001A2EAA1BBB1BFD010DC0AA1FBB1FEE1F73
:100F2000FF1FA217B307E407F50720F0A21BB30BBE
:100F3000E40BF50B661F771F881F991F1A9469F73A
:100F400060957095809590959B01AC01BD01CF0196
:100F50000895EE0FFF1F0590F491E02D099410E025
:100F6000C8ECD0E004C0FE010E94AB072296CA3C48
:080F7000D107C9F7F894FFCF87
:100F780048454C4C4F00000000001F03BF04C50249
:100F8800F202D702140300000000CA05BF042205BC
:060F9800E70408053A051C
:00000001FF
