:100000000C9464000C948C000C948C000C94580597
:100010000C947C050C94A0050C948C000C948C0022
:100020000C948C000C948C000C948C000C948C0020
:100030000C948C000C948C000C948C000C948C0010
:100040000C94C4000C948C000C9479020C94BC02A7
:100050000C948C000C948C000C948C000C948C00F0
:100060000C948C000C948C0000000007000201002E
:100070000003040600000000000000000102040864
:100080001020408001020408102001020408102002
:10009000040404040404040402020202020203032E
:1000A00003030303000000002300260029000000D2
:1000B0000000250028002B0000000000240027007D
:1000C0002A008E007803950011241FBECFEFD8E0E0
:1000D000DEBFCDBF11E0A0E0B1E0E0EBFDE002C08B
:1000E00005900D92A632B107D9F712E0A6E2B1E071
:1000F00001C01D92A933B107E1F710E0C6ECD0E0D2
:1001000004C02297FE010E94C706C23CD107C9F76E
:100110000E94CE030C9478060C94000020E043E08B
:1001200062E086E291E00C94120686E291E00C9483
:1001300071066115710581F0DB010D900020E9F772
:10014000AD0141505109461B570BDC01ED91FC916B
:100150000280F381E02D099480E090E0089540E86A
:1001600055E260E070E08BE491E00E94F70260E00D
:1001700071E08BE491E00C94990060E071E08BE415
:1001800091E00E949900F9CF1F920F920FB60F9243
:1001900011242F933F938F939F93AF93BF9380919D
:1001A000430190914401A0914501B09146013091E5
:1001B000420123E0230F2D3720F40196A11DB11D2C
:1001C00005C026E8230F0296A11DB11D2093420110
:1001D0008093430190934401A0934501B09346015D
:1001E0008091470190914801A0914901B0914A0145
:1001F0000196A11DB11D8093470190934801A093E2
:100200004901B0934A01BF91AF919F918F913F9166
:100210002F910F900FBE0F901F901895789484B572
:10022000826084BD84B5816084BD85B5826085BDF2
:1002300085B5816085BDEEE6F0E0808181608083D8
:10024000E1E8F0E0108280818260808380818160BB
:100250008083E0E8F0E0808181608083E1EBF0E082
:10026000808184608083E0EBF0E080818160808326
:10027000EAE7F0E08081846080838081826080830F
:100280008081816080838081806880831092C1003A
:100290000895833081F028F4813099F08230A1F004
:1002A00008958630A9F08730B9F08430D1F4809178
:1002B00080008F7D03C0809180008F7780938000C5
:1002C000089584B58F7702C084B58F7D84BD08956D
:1002D0008091B0008F7703C08091B0008F7D8093B4
:1002E000B0000895CF93DF9390E0FC01E458FF4FF6
:1002F0002491FC01E057FF4F8491882349F190E05D
:10030000880F991FFC01E854FF4FA591B4918255C5
:100310009F4FFC01C591D4919FB7611108C0F8941B
:100320008C91209582238C93888182230AC062302D
:1003300051F4F8948C91322F309583238C938881DB
:10034000822B888304C0F8948C91822B8C939FBF5E
:10035000DF91CF9108950F931F93CF93DF931F9257
:10036000CDB7DEB7282F30E0F901E859FF4F84916F
:10037000F901E458FF4F1491F901E057FF4F049140
:100380000023C9F0882321F069830E944901698113
:10039000E02FF0E0EE0FFF1FE255FF4FA591B49163
:1003A0009FB7F8948C91611103C01095812301C00F
:1003B000812B8C939FBF0F90DF91CF911F910F9155
:1003C0000895FC0124853585F901E05CFF4F8081AB
:1003D0009181F901EE5BFF4F20813181821B930BEC
:1003E0008F7399270895FC0184859585FC01E05C55
:1003F000FF4F40815181FC01EE5BFF4F2081318135
:100400004217530741F00190F081E02DE80FF91FEA
:10041000808190E008958FEF9FEF0895FC0184851F
:100420009585FC01E05CFF4F40815181FC01EE5B52
:10043000FF4F208131814217530779F0A081B181AC
:10044000A80FB91F8C91208131812F5F3F4F2F73EF
:1004500033273183208390E008958FEF9FEF089535
:10046000FC0181A1882329F0A489B5898C9186FF9C
:10047000FBCF11A20895CF93DF93FC01268537852A
:10048000D901A05CBF4F8D919C91119701968F73FC
:100490009927E901CE5BDF4F488159818417950781
:1004A000D9F30D90BC91A02DA20FB31F6C93A6851C
:1004B000B785A05CBF4F11969C938E93A689B78990
:1004C0002C9181E090E0078C02C0880F991F0A945C
:1004D000E2F7282B2C9381E081A30488F589E02D95
:1004E00080818064808381E090E0DF91CF910895E6
:1004F00008951F920F920FB60F9211242F933F93DE
:100500004F938F939F93EF93FF938091C00082FD51
:100510001CC04091C6008091F1019091F2010196BA
:100520008F7399272091F3013091F401821793077B
:1005300071F0E091F101F091F201EF54FE4F408330
:100540009093F2018093F10102C08091C600FF9167
:10055000EF919F918F914F913F912F910F900FBEEF
:100560000F901F9018958BE491E00E94E101892B78
:1005700011F00C94780208951F920F920FB60F920B
:1005800011242F933F938F939F93EF93FF93209189
:10059000AD013091AE018091AF019091B00128176B
:1005A000390731F48091C1008F7D8093C10014C060
:1005B000E091AF01F091B001E359FE4F20818091AD
:1005C000AF019091B00101968F7399279093B0017C
:1005D0008093AF012093C600FF91EF919F918F917F
:1005E0003F912F910F900FBE0F901F901895CF92B3
:1005F000DF92EF92FF92CF93DF93EC016A017B01D0
:10060000411581EE580761057105F9F0EC89FD8906
:1006100081E090E008A002C0880F991F0A94E2F7D9
:10062000808360E079E08DE390E0A70196010E946D
:10063000A30621503109410951095695479537952F
:100640002795211580E1380798F0EC89FD89108203
:1006500060E874E88EE190E0A70196010E94A3068D
:1006600021503109410951095695479537952795EC
:10067000E889F9893083EA89FB89208319A2EE8908
:10068000FF89408181E090E09C010C8C02C0220F28
:10069000331F0A94E2F7422B4083EE89FF894081A1
:1006A0009C010D8C02C0220F331F0A94E2F7422BEB
:1006B0004083EE89FF8940819C010E8C02C0220F8D
:1006C000331F0A94E2F7422B4083EE89FF89208191
:1006D0000F8C02C0880F991F0A94E2F7809582233D
:1006E0008083DF91CF91FF90EF90DF90CF900895BE
:1006F00010924E0110924D0188EE93E0A0E0B0E020
:1007000080934F0190935001A0935101B0935201F7
:100710008AE091E090934C0180934B0181EB91E052
:1007200090935801809357018DE691E090935A0180
:100730008093590185EC90E090935C0180935B017C
:1007400084EC90E090935E0180935D0180EC90E0FA
:100750009093600180935F0181EC90E0909362013F
:100760008093610182EC90E0909364018093630137
:1007700086EC90E0909366018093650184E080931D
:10078000670183E08093680187E08093690185E0D9
:1007900080936A0181E080936B0108950E940E01AD
:1007A0000E94AF00C3EBD2E00E94BD002097E1F3AE
:1007B0000E94B302F9CFCF92DF92EF92FF920F9394
:1007C0001F93CF93DF936C017A01EB01E60EF71EC6
:1007D00000E010E0CE15DF0561F06991D601ED91E2
:1007E000FC910190F081E02DC6010995080F191FB9
:1007F000F1CFC801DF91CF911F910F91FF90EF9042
:10080000DF90CF9008952091370230913802281759
:100810003907B9F49091F5018091F601981789F0A4
:10082000E091F501F0E0E950FE4F80812091F50163
:1008300030E02F5F3F4F2F7333272093F50190E077
:1008400008958FEF9FEF089520913702309138027D
:100850002817390781F49091F5018091F6019817D6
:1008600051F0E091F501F0E0E950FE4F80819927C9
:1008700087FD909508958FEF9FEF0895209137029F
:10088000309138022817390771F48091F6012091D0
:10089000F50190E0805C9F4F821B910960E470E05D
:1008A0000E948F06089580E090E00895209137021D
:1008B000309138022817390739F48FB7F89410921D
:1008C000F6011092F5018FBF0895DC015196ED916C
:1008D000FC915297208150968C9180958223808341
:1008E000089520E001972FEF8F3F9207D9F70895E1
:1008F000EF92FF920F931F93CF93DF93EC018B8DB9
:10090000EE85FF859D8581FF04C08081892329F4C0
:1009100047C08081892309F043C08B899C890E944C
:10092000710408E010E0EE24E394F12C8D899E8997
:100930000E947104EE85FF8580819D85892311F0D9
:10094000FE2803C08E2D8095F822EE0C015011096F
:100950000115110559F78F89988D0E9471048B8DAF
:1009600081FDF0948091F6012091F50190E00196CF
:100970008F73992730E08217930779F0E091F601A1
:10098000F0E0E950FE4FF0828091F60190E0019690
:100990008F7399278093F60103C08B8D81608B8FB5
:1009A000DF91CF911F910F91FF90EF90089561110A
:1009B00002C00C946504DC015196ED91FC915297B4
:1009C000208150968C91282B20830895DF92EF92FE
:1009D000FF920F931F93CF93DF93EC01E62E898D47
:1009E0009A8D892B39F481E090E09B838A8380E0A3
:1009F00090E04DC0DFB6F8946B8D66956170CE01C6
:100A00000E94D704898D9A8D05960E9471048B8D62
:100A100008E010E0FF24F39481FF19C08F2D8E2190
:100A200021F0CE010E94650404C061E0CE010E9465
:100A3000D704898D9A8D0E947104FF0C0150110911
:100A40000115110559F7CE010E94650419C08F2DBB
:100A50008E2129F061E0CE010E94D70403C0CE01AF
:100A60000E946504898D9A8D0E947104FF0C0150CB
:100A700011090115110559F761E0CE010E94D70453
:100A8000DFBE898D9A8D0E94710481E090E0DF9134
:100A9000CF911F910F91FF90EF90DF90089580917B
:100AA000370290913802009711F00C947804089561
:100AB0001F920F920FB60F9211242F933F934F93D3
:100AC0005F936F937F938F939F93AF93BF93EF93B6
:100AD000FF930E944F05FF91EF91BF91AF919F91BE
:100AE0008F917F916F915F914F913F912F910F90D7
:100AF0000FBE0F901F9018951F920F920FB60F9276
:100B000011242F933F934F935F936F937F938F9312
:100B10009F93AF93BF93EF93FF930E944F05FF9175
:100B2000EF91BF91AF919F918F917F916F915F9165
:100B30004F913F912F910F900FBE0F901F901895DE
:100B40001F920F920FB60F9211242F933F934F9342
:100B50005F936F937F938F939F93AF93BF93EF9325
:100B6000FF930E944F05FF91EF91BF91AF919F912D
:100B70008F917F916F915F914F913F912F910F9046
:100B80000FBE0F901F9018951F93CF93DF93EC012A
:100B9000162F61E0812F0E94720161E0812F0E9477
:100BA000AB01812F90E0FC01E458FF4FE491E88B0A
:100BB000FC01E057FF4FE491F0E0EE0FFF1FE2551C
:100BC000FF4F859194919A8B898BDF91CF911F91E3
:100BD00008951F93CF93DF93EC01162F60E0812FD0
:100BE0000E9472018B8D81FD04C061E0812F0E9403
:100BF000AB011C87812F90E0FC01E458FF4FE4918A
:100C0000ED87FC01E057FF4FE491F0E0EE0FFF1F8E
:100C1000EC55FF4F859194919F878E87DF91CF91FF
:100C20001F910895FF920F931F93CF93DF93EC01D1
:100C3000F62E522F1B821A8208EE13E020E030E0DD
:100C40000C831D832E833F838AE191E099838883FF
:100C50001C8A1B8A1E8A1D8A188E1F8A1A8E198E5C
:100C60008B8D8E7F50FB81F98B8F642FCE010E947C
:100C7000C4056F2DCE01DF91CF911F910F91FF9091
:100C80000C94E905FC014485463150F5483028F0C4
:100C90004E3030F4EBE6F0E005C0EDE6F0E002C0E7
:100CA000ECE6F0E05081483040F481E090E0042E22
:100CB00001C0880F0A94EAF710C0242F30E04E30AC
:100CC00018F42850310902C02E50310981E090E01B
:100CD000022E01C0880F0A94EAF78095852380834D
:100CE00008952AE131E0FC01318320830C9442060F
:100CF000F8940C94CB06AA1BBB1B51E107C0AA1F9A
:100D0000BB1FA617B70710F0A61BB70B881F991FAC
:100D10005A95A9F780959095BC01CD01089597FB50
:100D2000072E16F4009407D077FD09D00E947B06A9
:100D300007FC05D03EF4909581959F4F08957095DE
:100D400061957F4F0895A1E21A2EAA1BBB1BFD01DE
:100D50000DC0AA1FBB1FEE1FFF1FA217B307E4079A
:100D6000F50720F0A21BB30BE40BF50B661F771FF2
:100D7000881F991F1A9469F76095709580959095D2
:100D80009B01AC01BD01CF010895EE0FFF1F05903F
:100D9000F491E02D099410E0C6ECD0E004C0FE010F
:100DA0000E94C7062296C83CD107C9F7F894FFCF26
:100DB00048454C4C4F00000000003B02DB03E101C2
:100DC0000E02F301300200000000E604DB033E04E3
:060DD00003042404560494
:00000001FF
